{
  "_format": "hh-sol-artifact-1",
  "contractName": "vEVM",
  "sourceName": "contracts/vEVM.sol",
  "abi": [
    {
      "inputs": [],
      "stateMutability": "nonpayable",
      "type": "constructor"
    },
    {
      "inputs": [
        {
          "internalType": "bytes",
          "name": "bytecode",
          "type": "bytes"
        }
      ],
      "name": "execute",
      "outputs": [
        {
          "components": [
            {
              "internalType": "bytes",
              "name": "code",
              "type": "bytes"
            },
            {
              "internalType": "uint256",
              "name": "pc",
              "type": "uint256"
            },
            {
              "internalType": "bytes32[]",
              "name": "stack",
              "type": "bytes32[]"
            },
            {
              "internalType": "bytes",
              "name": "mem",
              "type": "bytes"
            },
            {
              "internalType": "uint256",
              "name": "msize",
              "type": "uint256"
            },
            {
              "internalType": "bytes32[]",
              "name": "storageKey",
              "type": "bytes32[]"
            },
            {
              "internalType": "bytes32[]",
              "name": "storageData",
              "type": "bytes32[]"
            },
            {
              "internalType": "bytes",
              "name": "output",
              "type": "bytes"
            },
            {
              "internalType": "bool",
              "name": "running",
              "type": "bool"
            },
            {
              "internalType": "bool",
              "name": "reverting",
              "type": "bool"
            }
          ],
          "internalType": "struct vEVM.vEVMState",
          "name": "",
          "type": "tuple"
        }
      ],
      "stateMutability": "view",
      "type": "function"
    }
  ],
  "bytecode": "0x608060405234801561001057600080fd5b50612cc5806100206000396000f3fe608060405234801561001057600080fd5b506004361061002b5760003560e01c806309c5eabe14610030575b600080fd5b61004361003e366004612841565b610059565b6040516100509190612933565b60405180910390f35b6100616127ea565b6100696127ea565b83838080601f0160208091040260200160405190810160405280939291908181526020018383808284376000920182905250938552505050602082018190526080820181905260016101008301526101208201525b6000848483602001518181106100d6576100d6612a26565b909101356001600160f81b031916915050600081900361010257600061010083015261083d565b61083d565b6001600160f81b03198116600160f81b03610120576100fd82610879565b6001600160f81b03198116600160f91b0361013e576100fd82610929565b6001600160f81b03198116600360f81b0361015c576100fd82610976565b6001600160f81b03198116600160fa1b0361017a576100fd826109c3565b6001600160f81b03198116600560f81b03610198576100fd82610a10565b6001600160f81b03198116600360f91b036101b6576100fd82610a89565b6001600160f81b03198116600760f81b036101d4576100fd82610ad6565b6001600160f81b03198116600160fb1b036101f2576100fd82610b4f565b6001600160f81b03198116600960f81b03610210576100fd82610c6a565b6001600160f81b03198116600560f91b0361022e576100fd82610d1b565b6001600160f81b03198116600160fc1b0361024c576100fd82610d68565b6001600160f81b03198116601160f81b0361026a576100fd82610dd4565b6001600160f81b03198116600960f91b03610288576100fd82610e23565b6001600160f81b03198116601360f81b036102a6576100fd82610e9e565b6001600160f81b03198116600560fa1b036102c4576100fd82610f19565b6001600160f81b03198116601560f81b036102e2576100fd82610f68565b6001600160f81b03198116600b60f91b03610300576100fd82610fdb565b6001600160f81b03198116601760f81b0361031e576100fd82611060565b6001600160f81b03198116600360fb1b0361033c576100fd826110e5565b6001600160f81b03198116601960f81b0361035a576100fd8261116a565b6001600160f81b03198116600d60f91b03610378576100fd826111c0565b6001600160f81b03198116600160fd1b03610396576100fd82611299565b6001600160f81b03198116600360fc1b036103b4576100fd82611408565b6001600160f81b03198116603160f81b036103d2576100fd82611442565b6001600160f81b03198116601960f91b036103f0576100fd826114c9565b6001600160f81b03198116603360f81b0361040e576100fd82611503565b6001600160f81b03198116600d60fa1b0361042c576100fd8261153d565b6001600160f81b03198116600760fb1b0361044a576100fd82611577565b6001600160f81b03198116601d60f91b03610468576100fd826115b4565b6001600160f81b03198116600160fe1b03610486576100fd826115ee565b6001600160f81b03198116604160f81b036104a4576100fd8261164e565b6001600160f81b03198116602160f91b036104c2576100fd82611688565b6001600160f81b03198116604360f81b036104e0576100fd826116c2565b6001600160f81b03198116602360f91b036104fe576100fd826116fc565b6001600160f81b03198116604760f81b0361051c576100fd82611736565b6001600160f81b03198116600960fb1b0361053a576100fd82611770565b6001600160f81b03198116600560fc1b03610558576100fd826117aa565b6001600160f81b03198116605160f81b03610576576100fd826117cc565b6001600160f81b03198116602960f91b03610594576100fd8261189b565b6001600160f81b03198116605360f81b036105b2576100fd8261196c565b6001600160f81b03198116601560fa1b036105d0576100fd82611a52565b6001600160f81b03198116605560f81b036105ee576100fd82611b5f565b6001600160f81b03198116602b60f91b0361060c576100fd82611cec565b6001600160f81b03198116605760f81b0361062a576100fd82611d87565b6001600160f81b03198116600b60fb1b03610648576100fd82611e60565b6001600160f81b03198116605960f81b03610666576100fd82611e9f565b605b60f81b6001600160f81b03198216146100fd57600360fd1b6001600160f81b03198216108015906106a75750607f60f81b6001600160f81b0319821611155b156107595760006106bd605f60f884901c612a52565b60ff16905061073d838787866020015160016106d99190612a6b565b9085886020015160016106ec9190612a6b565b6106f69190612a6b565b9261070393929190612a7e565b8080601f016020809104026020016040519081016040528093929190818152602001838380828437600092019190915250611edf92505050565b808360200181815161074f9190612a6b565b90525061083d9050565b600160ff1b6001600160f81b03198216108015906107855750608f60f81b6001600160f81b0319821611155b156107b057600061079b607f60f884901c612a52565b60ff1690506107aa8382611f6d565b5061083d565b600960fc1b6001600160f81b03198216108015906107dc5750609f60f81b6001600160f81b0319821611155b156108015760006107f2608f60f884901c612a52565b60ff1690506107aa8382611fd3565b6001600160f81b0319811660f360f81b0361081f576100fd826120bf565b6001600160f81b0319811660fd60f81b0361083d5761083d82612142565b81610100015161084d5750610870565b6001826020018181516108609190612a6b565b90525050602081015183116100be575b90505b92915050565b6108848160026121cd565b1561088c5750565b604081015180516108c191906108a490600290612aa8565b815181106108b4576108b4612a26565b60200260200101516121ed565b604082015180516108d991906108a490600190612aa8565b6108e39190612a6b565b604082015180516108f690600290612aa8565b8151811061090657610906612a26565b602002602001018181525050610921816040015160016122bd565b604090910152565b6109348160026121cd565b1561093c5750565b6040810151805161095491906108a490600290612aa8565b6040820151805161096c91906108a490600190612aa8565b6108e39190612abb565b6109818160026121cd565b156109895750565b604081015180516109a191906108a490600290612aa8565b604082015180516109b991906108a490600190612aa8565b6108e39190612aa8565b6109ce8160026121cd565b156109d65750565b604081015180516109ee91906108a490600290612aa8565b60408201518051610a0691906108a490600190612aa8565b6108e39190612ae8565b610a1b8160026121cd565b15610a235750565b60408101518051610a3690600290612aa8565b81518110610a4657610a46612a26565b602090810291909101015160408201518051610a6490600190612aa8565b81518110610a7457610a74612a26565b602002602001015160001c6108e39190612afc565b610a948160026121cd565b15610a9c5750565b60408101518051610ab491906108a490600290612aa8565b60408201518051610acc91906108a490600190612aa8565b6108e39190612b2a565b610ae18160026121cd565b15610ae95750565b60408101518051610afc90600290612aa8565b81518110610b0c57610b0c612a26565b602090810291909101015160408201518051610b2a90600190612aa8565b81518110610b3a57610b3a612a26565b602002602001015160001c6108e39190612b3e565b610b5a8160036121cd565b15610b625750565b60408101518051610b7590600390612aa8565b81518110610b8557610b85612a26565b602002602001015160001c600003610bcf576040810151805160009190610bae90600390612aa8565b81518110610bbe57610bbe612a26565b602002602001018181525050610c5b565b60408101518051610be791906108a490600390612aa8565b60408201518051610bff91906108a490600290612aa8565b60408301518051610c1791906108a490600190612aa8565b610c219190612a6b565b610c2b9190612b2a565b60408201518051610c3e90600390612aa8565b81518110610c4e57610c4e612a26565b6020026020010181815250505b610921816040015160026122bd565b610c758160036121cd565b15610c7d5750565b60408101518051610c9090600390612aa8565b81518110610ca057610ca0612a26565b602002602001015160001c600003610cc9576040810151805160009190610bae90600390612aa8565b60408101518051610ce191906108a490600390612aa8565b60408201518051610cf991906108a490600290612aa8565b60408301518051610d1191906108a490600190612aa8565b610c219190612abb565b610d268160026121cd565b15610d2e5750565b60408101518051610d4691906108a490600290612aa8565b60408201518051610d5e91906108a490600190612aa8565b6108e39190612c36565b610d738160026121cd565b15610d7b5750565b60408101518051610d9391906108a490600290612aa8565b60408201518051610dab91906108a490600190612aa8565b10610db7576000610dba565b60015b6040820151805160ff92909216916108f690600290612aa8565b610ddf8160026121cd565b15610de75750565b60408101518051610dff91906108a490600290612aa8565b60408201518051610e1791906108a490600190612aa8565b11610db7576000610dba565b610e2e8160026121cd565b15610e365750565b60408101518051610e4990600290612aa8565b81518110610e5957610e59612a26565b602090810291909101015160408201518051610e7790600190612aa8565b81518110610e8757610e87612a26565b602002602001015160001c12610db7576000610dba565b610ea98160026121cd565b15610eb15750565b60408101518051610ec490600290612aa8565b81518110610ed457610ed4612a26565b602090810291909101015160408201518051610ef290600190612aa8565b81518110610f0257610f02612a26565b602002602001015160001c13610db7576000610dba565b610f248160026121cd565b15610f2c5750565b60408101518051610f4491906108a490600290612aa8565b60408201518051610f5c91906108a490600190612aa8565b14610db7576000610dba565b610f738160016121cd565b15610f7b5750565b60408101518051610f9391906108a490600190612aa8565b15610f9f576000610fa2565b60015b6040820151805160ff9290921691610fbc90600190612aa8565b81518110610fcc57610fcc612a26565b60200260200101818152505050565b610fe68160026121cd565b15610fee5750565b6040810151805161100190600290612aa8565b8151811061101157611011612a26565b6020026020010151816040015160018360400151516110309190612aa8565b8151811061104057611040612a26565b602002602001015116816040015160028360400151516108f69190612aa8565b61106b8160026121cd565b156110735750565b6040810151805161108690600290612aa8565b8151811061109657611096612a26565b6020026020010151816040015160018360400151516110b59190612aa8565b815181106110c5576110c5612a26565b602002602001015117816040015160028360400151516108f69190612aa8565b6110f08160026121cd565b156110f85750565b6040810151805161110b90600290612aa8565b8151811061111b5761111b612a26565b60200260200101518160400151600183604001515161113a9190612aa8565b8151811061114a5761114a612a26565b602002602001015118816040015160028360400151516108f69190612aa8565b6111758160016121cd565b1561117d5750565b6040810151805161119090600190612aa8565b815181106111a0576111a0612a26565b60200260200101511981604001516001836040015151610fbc9190612aa8565b6111cb8160026121cd565b156111d35750565b60408101518051600091906111ea90600190612aa8565b815181106111fa576111fa612a26565b602002602001015160001c90508060086112149190612abb565b6040830151805161122790600290612aa8565b8151811061123757611237612a26565b6020026020010151901b6001600160f81b031916826040015160028460400151516112629190612aa8565b8151811061127257611272612a26565b60200260200101818152505061128d826040015160016122bd565b82604001819052505050565b6112a48160026121cd565b156112ac5750565b60408101518051600091906112c390600190612aa8565b815181106112d3576112d3612a26565b602002602001015160001c90506000826040015160028460400151516112f99190612aa8565b8151811061130957611309612a26565b602002602001015160001c90506000836080015182846113299190612a6b565b1061134a57608084015161133d8385612a6b565b6113479190612aa8565b90505b801561139e57606084015161139090611364602084612b2a565b15611370576001611373565b60005b60ff16611381602085612ae8565b61138b9190612a6b565b612371565b606085018190525160808501525b60006113af85606001518585612434565b805160208201206040870151805192935090916113ce90600290612aa8565b815181106113de576113de612a26565b6020026020010181815250506113f9856040015160016122bd565b85604001819052505050505050565b6114138160016124e7565b1561141b5750565b61142a8160400151600161250b565b604082018190528051309190610fbc90600190612aa8565b61144d8160016121cd565b156114555750565b604081015180516000919061146c90600190612aa8565b8151811061147c5761147c612a26565b6020908102919091010151604083015180519192506001600160a01b03831631916114a990600190612aa8565b815181106114b9576114b9612a26565b6020026020010181815250505050565b6114d48160016124e7565b156114dc5750565b6114eb8160400151600161250b565b604082018190528051329190610fbc90600190612aa8565b61150e8160016124e7565b156115165750565b6115258160400151600161250b565b604082018190528051339190610fbc90600190612aa8565b6115488160016124e7565b156115505750565b61155f8160400151600161250b565b604082018190528051349190610fbc90600190612aa8565b6115828160016124e7565b1561158a5750565b6115998160400151600161250b565b604082018190528151518151909190610fbc90600190612aa8565b6115bf8160016124e7565b156115c75750565b6115d68160400151600161250b565b6040820181905280513a9190610fbc90600190612aa8565b6115f98160016121cd565b156116015750565b604081015180516000919061161890600190612aa8565b8151811061162857611628612a26565b602002602001015160001c90508040826040015160018460400151516114a99190612aa8565b6116598160016124e7565b156116615750565b6116708160400151600161250b565b604082018190528051419190610fbc90600190612aa8565b6116938160016124e7565b1561169b5750565b6116aa8160400151600161250b565b604082018190528051429190610fbc90600190612aa8565b6116cd8160016124e7565b156116d55750565b6116e48160400151600161250b565b604082018190528051439190610fbc90600190612aa8565b6117078160016124e7565b1561170f5750565b61171e8160400151600161250b565b604082018190528051469190610fbc90600190612aa8565b6117418160016124e7565b156117495750565b6117588160400151600161250b565b604082018190528051479190610fbc90600190612aa8565b61177b8160016124e7565b156117835750565b6117928160400151600161250b565b604082018190528051489190610fbc90600190612aa8565b6117b58160016121cd565b156117bd5750565b610921816040015160016122bd565b6117d78160016121cd565b156117df5750565b604081015180516000916117f9916108a490600190612aa8565b90506000826080015160208361180f9190612a6b565b10611831576080830151611824602084612a6b565b61182e9190612aa8565b90505b801561185957606083015161184b90611364602084612b2a565b606084018190525160808401525b6118678360600151836125b4565b6040840151805161187a90600190612aa8565b8151811061188a5761188a612a26565b602002602001018181525050505050565b6118a68160026121cd565b156118ae5750565b604081015180516000916118c8916108a490600190612aa8565b9050600082608001516020836118de9190612a6b565b106119005760808301516118f3602084612a6b565b6118fd9190612aa8565b90505b801561192857606083015161191a90611364602084612b2a565b606084018190525160808401525b61195083606001518361194b866040015160028860400151516108a49190612aa8565b612616565b61195f836040015160026122bd565b8360400181905250505050565b6119778160026121cd565b1561197f5750565b604081015180516000919061199690600190612aa8565b815181106119a6576119a6612a26565b602002602001015160001c9050600082608001516001836119c79190612a6b565b106119e95760808301516119dc600184612a6b565b6119e69190612aa8565b90505b8015611a11576060830151611a0390611364602084612b2a565b606084018190525160808401525b61195083606001518360f886604001516002886040015151611a339190612aa8565b81518110611a4357611a43612a26565b6020026020010151901b61267a565b611a5d8160016121cd565b15611a655750565b60008160a0015151600003611a8b5760408201518051600091906114a990600190612aa8565b6000805b8360a0015151811015611b085760408401518051611aaf90600190612aa8565b81518110611abf57611abf612a26565b60200260200101518460a001518281518110611add57611add612a26565b602002602001015103611af65780915060019250611b08565b80611b0081612c49565b915050611a8f565b50811515600003611b2a57604083015180516000919061187a90600190612aa8565b8260c001518181518110611b4057611b40612a26565b60200260200101518360400151600185604001515161187a9190612aa8565b611b6a8160026121cd565b15611b725750565b6040810151805160009190611b8990600190612aa8565b81518110611b9957611b99612a26565b60200260200101519050600082604001516002846040015151611bbc9190612aa8565b81518110611bcc57611bcc612a26565b6020026020010151905060008060005b8560a0015151811015611c2b57848660a001518281518110611c0057611c00612a26565b602002602001015103611c195780925060019150611c2b565b80611c2381612c49565b915050611bdc565b50801515600003611cb957611c4a8560a001518660c0015160016126a9565b60c087015260a086018190528051859190611c6790600190612aa8565b81518110611c7757611c77612a26565b602090810291909101015260c08501518051849190611c9890600190612aa8565b81518110611ca857611ca8612a26565b602002602001018181525050611cdd565b828560c001518381518110611cd057611cd0612a26565b6020026020010181815250505b6113f9856040015160026122bd565b611cf78160016121cd565b15611cff5750565b6040810151805160009190611d1690600190612aa8565b81518110611d2657611d26612a26565b602002602001015160001c905081600001518181518110611d4957611d49612a26565b6020910101516001600160f81b031916605b60f81b14611d67575050565b611d72600182612aa8565b6020830152604082015161128d9060016122bd565b611d928160026121cd565b15611d9a5750565b6040810151805160009190611db190600190612aa8565b81518110611dc157611dc1612a26565b602002602001015160001c9050600082604001516002846040015151611de79190612aa8565b81518110611df757611df7612a26565b602002602001015160001c905082600001518281518110611e1a57611e1a612a26565b6020910101516001600160f81b031916605b60f81b14611e3957505050565b8060010361195057611e4c600183612aa8565b602084015261195f836040015160026122bd565b611e6b8160016124e7565b15611e735750565b611e828160400151600161250b565b6040820181905260208201518151909190610fbc90600190612aa8565b611eaa8160016124e7565b15611eb25750565b611ec18160400151600161250b565b604082018190526060820151518151909190610fbc90600190612aa8565b611eea8260016124e7565b15611ef3575050565b6000805b8251811015611f4557611f0b816008612abb565b838281518110611f1d57611f1d612a26565b01602001516001600160f81b031916901c919091179080611f3d81612c49565b915050611ef7565b50611f558360400151600161250b565b60408401819052805182919061187a90600190612aa8565b611f788260016124e7565b15611f81575050565b611f8b82826121cd565b15611f94575050565b6040820151805160009190611faa908490612aa8565b81518110611fba57611fba612a26565b60200260200101519050611f558360400151600161250b565b611fdd82826121cd565b15611fe6575050565b604082015180518290611ffb90600190612aa8565b6120059190612aa8565b8151811061201557612015612a26565b6020026020010151826040015160018460400151516120349190612aa8565b8151811061204457612044612a26565b6020026020010151836040015160018560400151516120639190612aa8565b8151811061207357612073612a26565b6020026020010184604001518460018760400151516120929190612aa8565b61209c9190612aa8565b815181106120ac576120ac612a26565b6020908102919091010191909152525050565b6120ca8160026121cd565b156120d25750565b604081015180516000916120ec916108a490600190612aa8565b9050600061210a836040015160028560400151516108a49190612aa8565b905061211b83606001518383612434565b60e084015260408301516121309060026122bd565b60408401525050600061010090910152565b61214d8160026121cd565b156121555750565b6040810151805160009161216f916108a490600190612aa8565b9050600061218d836040015160028560400151516108a49190612aa8565b905061219e83606001518383612434565b60e084015260408301516121b39060026122bd565b604084015250506001610120820152600061010090910152565b60008183604001515110156121e457506001610873565b50600092915050565b60008060205b80156122535783612205600183612aa8565b6020811061221557612215612a26565b1a60f81b6001600160f81b03191660000361223c57612235600183612a6b565b9150612241565b612253565b8061224b81612c62565b9150506121f3565b506000805b60208110156122b5578281106122a357612273816008612abb565b8561227e8584612aa8565b6020811061228e5761228e612a26565b1a60f81b6001600160f81b031916901c821791505b806122ad81612c49565b915050612258565b509392505050565b606060008284516122ce9190612aa8565b6001600160401b038111156122e5576122e5612c79565b60405190808252806020026020018201604052801561230e578160200160208202803683370190505b50905060005b8385516123219190612aa8565b8110156122b55784818151811061233a5761233a612a26565b602002602001015182828151811061235457612354612a26565b60209081029190910101528061236981612c49565b915050612314565b60606000612380836020612abb565b845161238c9190612a6b565b6001600160401b038111156123a3576123a3612c79565b6040519080825280601f01601f1916602001820160405280156123cd576020820181803683370190505b50905060005b84518110156122b5578481815181106123ee576123ee612a26565b602001015160f81c60f81b82828151811061240b5761240b612a26565b60200101906001600160f81b031916908160001a9053508061242c81612c49565b9150506123d3565b6060816001600160401b0381111561244e5761244e612c79565b6040519080825280601f01601f191660200182016040528015612478576020820181803683370190505b50905060005b828110156122b557846124918286612a6b565b815181106124a1576124a1612a26565b602001015160f81c60f81b8282815181106124be576124be612a26565b60200101906001600160f81b031916908160001a905350806124df81612c49565b91505061247e565b6000610400828460400151516124fd9190612a6b565b11156121e457506001610873565b6060600082845161251c9190612a6b565b6001600160401b0381111561253357612533612c79565b60405190808252806020026020018201604052801561255c578160200160208202803683370190505b50905060005b84518110156122b55784818151811061257d5761257d612a26565b602002602001015182828151811061259757612597612a26565b6020908102919091010152806125ac81612c49565b915050612562565b6000805b602081101561260f576125cc816008612abb565b846125d78386612a6b565b815181106125e7576125e7612a26565b01602001516001600160f81b031916901c91909117908061260781612c49565b9150506125b8565b5092915050565b60005b60208110156126745761262d816008612abb565b82901b8461263b8386612a6b565b8151811061264b5761264b612a26565b60200101906001600160f81b031916908160001a9053508061266c81612c49565b915050612619565b50505050565b8083838151811061268d5761268d612a26565b60200101906001600160f81b031916908160001a905350505050565b60608060008386516126bb9190612a6b565b6001600160401b038111156126d2576126d2612c79565b6040519080825280602002602001820160405280156126fb578160200160208202803683370190505b509050600084865161270d9190612a6b565b6001600160401b0381111561272457612724612c79565b60405190808252806020026020018201604052801561274d578160200160208202803683370190505b50905060005b87518110156127dd5787818151811061276e5761276e612a26565b602002602001015183828151811061278857612788612a26565b6020026020010181815250508681815181106127a6576127a6612a26565b60200260200101518282815181106127c0576127c0612a26565b6020908102919091010152806127d581612c49565b915050612753565b5090969095509350505050565b60405180610140016040528060608152602001600081526020016060815260200160608152602001600081526020016060815260200160608152602001606081526020016000151581526020016000151581525090565b6000806020838503121561285457600080fd5b82356001600160401b038082111561286b57600080fd5b818501915085601f83011261287f57600080fd5b81358181111561288e57600080fd5b8660208285010111156128a057600080fd5b60209290920196919550909350505050565b6000815180845260005b818110156128d8576020818501810151868301820152016128bc565b506000602082860101526020601f19601f83011685010191505092915050565b600081518084526020808501945080840160005b838110156129285781518752958201959082019060010161290c565b509495945050505050565b60208152600082516101408060208501526129526101608501836128b2565b9150602085015160408501526040850151601f198086850301606087015261297a84836128f8565b9350606087015191508086850301608087015261299784836128b2565b9350608087015160a087015260a08701519150808685030160c08701526129be84836128f8565b935060c08701519150808685030160e08701526129db84836128f8565b935060e087015191506101008187860301818801526129fa85846128b2565b94508088015192505050610120612a148187018315159052565b90950151151593019290925250919050565b634e487b7160e01b600052603260045260246000fd5b634e487b7160e01b600052601160045260246000fd5b60ff828116828216039081111561087357610873612a3c565b8082018082111561087357610873612a3c565b60008085851115612a8e57600080fd5b83861115612a9b57600080fd5b5050820193919092039150565b8181038181111561087357610873612a3c565b808202811582820484141761087357610873612a3c565b634e487b7160e01b600052601260045260246000fd5b600082612af757612af7612ad2565b500490565b600082612b0b57612b0b612ad2565b600160ff1b821460001984141615612b2557612b25612a3c565b500590565b600082612b3957612b39612ad2565b500690565b600082612b4d57612b4d612ad2565b500790565b600181815b80851115612b8d578160001904821115612b7357612b73612a3c565b80851615612b8057918102915b93841c9390800290612b57565b509250929050565b600082612ba457506001610873565b81612bb157506000610873565b8160018114612bc75760028114612bd157612bed565b6001915050610873565b60ff841115612be257612be2612a3c565b50506001821b610873565b5060208310610133831016604e8410600b8410161715612c10575081810a610873565b612c1a8383612b52565b8060001904821115612c2e57612c2e612a3c565b029392505050565b6000612c428383612b95565b9392505050565b600060018201612c5b57612c5b612a3c565b5060010190565b600081612c7157612c71612a3c565b506000190190565b634e487b7160e01b600052604160045260246000fdfea2646970667358221220d4fb278aac0a60f6cbddd47958e6ecc4dd6290b56bd3862601e7b93f5b9b2e0364736f6c63430008110033",
  "linkReferences": {},
  "deployedLinkReferences": {}
}