{
  "_format": "hh-sol-artifact-1",
  "contractName": "vEVM",
  "sourceName": "contracts/vEVM.sol",
  "abi": [
    {
      "inputs": [],
      "stateMutability": "nonpayable",
      "type": "constructor"
    },
    {
      "stateMutability": "payable",
      "type": "fallback"
    },
    {
      "inputs": [
        {
          "internalType": "bytes",
          "name": "bytecode",
          "type": "bytes"
        }
      ],
      "name": "execute",
      "outputs": [
        {
          "components": [
            {
              "internalType": "bytes",
              "name": "code",
              "type": "bytes"
            },
            {
              "internalType": "uint256",
              "name": "pc",
              "type": "uint256"
            },
            {
              "internalType": "bytes32[]",
              "name": "stack",
              "type": "bytes32[]"
            },
            {
              "internalType": "bytes",
              "name": "mem",
              "type": "bytes"
            },
            {
              "internalType": "uint256",
              "name": "msize",
              "type": "uint256"
            },
            {
              "internalType": "bytes32[]",
              "name": "storageKey",
              "type": "bytes32[]"
            },
            {
              "internalType": "bytes32[]",
              "name": "storageData",
              "type": "bytes32[]"
            },
            {
              "internalType": "bytes",
              "name": "output",
              "type": "bytes"
            },
            {
              "internalType": "bool",
              "name": "running",
              "type": "bool"
            },
            {
              "internalType": "bool",
              "name": "reverting",
              "type": "bool"
            }
          ],
          "internalType": "struct vEVM.vEVMState",
          "name": "",
          "type": "tuple"
        }
      ],
      "stateMutability": "view",
      "type": "function"
    },
    {
      "stateMutability": "payable",
      "type": "receive"
    }
  ],
  "bytecode": "0x608060405234801561001057600080fd5b50613016806100206000396000f3fe60806040526004361061001f5760003560e01c806309c5eabe1461002857005b3661002657005b005b34801561003457600080fd5b50610048610043366004612ba9565b61005e565b6040516100559190612c9b565b60405180910390f35b610066612b52565b61006e612b52565b83838080601f01602080910402602001604051908101604052809392919081815260200183838082843760009201919091525050509082525060608101516100b79060046108d2565b606082018190526100ca9060008061099d565b60608101516100dc906020600061099d565b60608101516100ee906040608061099d565b6060808201516100ff91600061099d565b60006020820181905260016101008301526101208201525b60008484836020015181811061012f5761012f612d8e565b909101356001600160f81b031916915050600081900361015b576000610100830152610896565b610896565b6001600160f81b03198116600160f81b036101795761015682610a01565b6001600160f81b03198116600160f91b036101975761015682610ac0565b6001600160f81b03198116600360f81b036101b55761015682610b39565b6001600160f81b03198116600160fa1b036101d35761015682610bb2565b6001600160f81b03198116600560f81b036101f15761015682610c2b565b6001600160f81b03198116600360f91b0361020f5761015682610ca4565b6001600160f81b03198116600760f81b0361022d5761015682610d1d565b6001600160f81b03198116600160fb1b0361024b5761015682610d96565b6001600160f81b03198116600960f81b036102695761015682610ef3565b6001600160f81b03198116600560f91b036102875761015682610fe6565b6001600160f81b03198116600160fc1b036102a5576101568261105f565b6001600160f81b03198116601160f81b036102c357610156826110f7565b6001600160f81b03198116600960f91b036102e15761015682611172565b6001600160f81b03198116601360f81b036102ff57610156826111ed565b6001600160f81b03198116600560fa1b0361031d5761015682611268565b6001600160f81b03198116601560f81b0361033b57610156826112e3565b6001600160f81b03198116600b60f91b03610359576101568261136e565b6001600160f81b03198116601760f81b0361037757610156826113f3565b6001600160f81b03198116600360fb1b036103955761015682611478565b6001600160f81b03198116601960f81b036103b357610156826114fd565b6001600160f81b03198116600d60f91b036103d15761015682611553565b6001600160f81b03198116600160fd1b036103ef576101568261162c565b6001600160f81b03198116600360fc1b0361040d57610156826117c8565b6001600160f81b03198116603160f81b0361042b5761015682611802565b6001600160f81b03198116601960f91b036104495761015682611889565b6001600160f81b03198116603360f81b0361046757610156826118c3565b6001600160f81b03198116600d60fa1b0361048557610156826118fd565b6001600160f81b03198116600760fb1b036104a35761015682611937565b6001600160f81b03198116601d60f91b036104c15761015682611974565b6001600160f81b03198116600160fe1b036104df57610156826119ae565b6001600160f81b03198116604160f81b036104fd5761015682611a0e565b6001600160f81b03198116602160f91b0361051b5761015682611a48565b6001600160f81b03198116604360f81b036105395761015682611a82565b6001600160f81b03198116602360f91b036105575761015682611abc565b6001600160f81b03198116604760f81b036105755761015682611af6565b6001600160f81b03198116600960fb1b036105935761015682611b30565b6001600160f81b03198116600560fc1b036105b15761015682611b6a565b6001600160f81b03198116605160f81b036105cf5761015682611b8c565b6001600160f81b03198116602960f91b036105ed5761015682611c9c565b6001600160f81b03198116605360f81b0361060b5761015682611dc3565b6001600160f81b03198116601560fa1b036106295761015682611ed2565b6001600160f81b03198116605560f81b036106475761015682612000565b6001600160f81b03198116602b60f91b03610665576101568261218d565b6001600160f81b03198116605760f81b036106835761015682612228565b6001600160f81b03198116600b60fb1b036106a15761015682612301565b6001600160f81b03198116605960f81b036106bf5761015682612340565b605b60f81b6001600160f81b031982161461015657600360fd1b6001600160f81b03198216108015906107005750607f60f81b6001600160f81b0319821611155b156107b2576000610716605f60f884901c612dba565b60ff169050610796838787866020015160016107329190612dd3565b9085886020015160016107459190612dd3565b61074f9190612dd3565b9261075c93929190612de6565b8080601f01602080910402602001604051908101604052809392919081815260200183838082843760009201919091525061238092505050565b80836020018181516107a89190612dd3565b9052506108969050565b600160ff1b6001600160f81b03198216108015906107de5750608f60f81b6001600160f81b0319821611155b156108095760006107f4607f60f884901c612dba565b60ff1690506108038382612454565b50610896565b600960fc1b6001600160f81b03198216108015906108355750609f60f81b6001600160f81b0319821611155b1561085a57600061084b608f60f884901c612dba565b60ff16905061080383826124d2565b6001600160f81b0319811660f360f81b0361087857610156826125be565b6001600160f81b0319811660fd60f81b036108965761089682612671565b8161010001516108a657506108c9565b6001826020018181516108b99190612dd3565b9052505060208101518311610117575b90505b92915050565b606060006108e1836020612e10565b84516108ed9190612dd3565b6001600160401b0381111561090457610904612e27565b6040519080825280601f01601f19166020018201604052801561092e576020820181803683370190505b50905060005b84518110156109955784818151811061094f5761094f612d8e565b602001015160f81c60f81b82828151811061096c5761096c612d8e565b60200101906001600160f81b031916908160001a9053508061098d81612e3d565b915050610934565b509392505050565b60005b60208110156109fb576109b4816008612e10565b82901b846109c28386612dd3565b815181106109d2576109d2612d8e565b60200101906001600160f81b031916908160001a905350806109f381612e3d565b9150506109a0565b50505050565b610a0c81600261272c565b15610a145750565b60408101518051610a2790600290612e56565b81518110610a3757610a37612d8e565b602090810291909101015160408201518051610a5590600190612e56565b81518110610a6557610a65612d8e565b602002602001015160001c610a7a9190612dd3565b60408201518051610a8d90600290612e56565b81518110610a9d57610a9d612d8e565b602002602001018181525050610ab88160400151600161274c565b604090910152565b610acb81600261272c565b15610ad35750565b60408101518051610ae690600290612e56565b81518110610af657610af6612d8e565b602090810291909101015160408201518051610b1490600190612e56565b81518110610b2457610b24612d8e565b602002602001015160001c610a7a9190612e10565b610b4481600261272c565b15610b4c5750565b60408101518051610b5f90600290612e56565b81518110610b6f57610b6f612d8e565b602090810291909101015160408201518051610b8d90600190612e56565b81518110610b9d57610b9d612d8e565b602002602001015160001c610a7a9190612e56565b610bbd81600261272c565b15610bc55750565b60408101518051610bd890600290612e56565b81518110610be857610be8612d8e565b602090810291909101015160408201518051610c0690600190612e56565b81518110610c1657610c16612d8e565b602002602001015160001c610a7a9190612e7f565b610c3681600261272c565b15610c3e5750565b60408101518051610c5190600290612e56565b81518110610c6157610c61612d8e565b602090810291909101015160408201518051610c7f90600190612e56565b81518110610c8f57610c8f612d8e565b602002602001015160001c610a7a9190612e93565b610caf81600261272c565b15610cb75750565b60408101518051610cca90600290612e56565b81518110610cda57610cda612d8e565b602090810291909101015160408201518051610cf890600190612e56565b81518110610d0857610d08612d8e565b602002602001015160001c610a7a9190612ec1565b610d2881600261272c565b15610d305750565b60408101518051610d4390600290612e56565b81518110610d5357610d53612d8e565b602090810291909101015160408201518051610d7190600190612e56565b81518110610d8157610d81612d8e565b602002602001015160001c610a7a9190612ed5565b610da181600361272c565b15610da95750565b60408101518051610dbc90600390612e56565b81518110610dcc57610dcc612d8e565b602002602001015160001c600003610e16576040810151805160009190610df590600390612e56565b81518110610e0557610e05612d8e565b602002602001018181525050610ee4565b60408101518051610e2990600390612e56565b81518110610e3957610e39612d8e565b602090810291909101015160408201518051610e5790600290612e56565b81518110610e6757610e67612d8e565b602090810291909101015160408301518051610e8590600190612e56565b81518110610e9557610e95612d8e565b602002602001015160001c610eaa9190612dd3565b610eb49190612ec1565b60408201518051610ec790600390612e56565b81518110610ed757610ed7612d8e565b6020026020010181815250505b610ab88160400151600261274c565b610efe81600361272c565b15610f065750565b60408101518051610f1990600390612e56565b81518110610f2957610f29612d8e565b602002602001015160001c600003610f52576040810151805160009190610df590600390612e56565b60408101518051610f6590600390612e56565b81518110610f7557610f75612d8e565b602090810291909101015160408201518051610f9390600290612e56565b81518110610fa357610fa3612d8e565b602090810291909101015160408301518051610fc190600190612e56565b81518110610fd157610fd1612d8e565b602002602001015160001c610eaa9190612e10565b610ff181600261272c565b15610ff95750565b6040810151805161100c90600290612e56565b8151811061101c5761101c612d8e565b60209081029190910101516040820151805161103a90600190612e56565b8151811061104a5761104a612d8e565b602002602001015160001c610a7a9190612fcd565b61106a81600261272c565b156110725750565b6040810151805161108590600290612e56565b8151811061109557611095612d8e565b6020908102919091010151604082015180516110b390600190612e56565b815181106110c3576110c3612d8e565b602002602001015160001c106110da5760006110dd565b60015b6040820151805160ff9290921691610a8d90600290612e56565b61110281600261272c565b1561110a5750565b6040810151805161111d90600290612e56565b8151811061112d5761112d612d8e565b60209081029190910101516040820151805161114b90600190612e56565b8151811061115b5761115b612d8e565b602002602001015160001c116110da5760006110dd565b61117d81600261272c565b156111855750565b6040810151805161119890600290612e56565b815181106111a8576111a8612d8e565b6020908102919091010151604082015180516111c690600190612e56565b815181106111d6576111d6612d8e565b602002602001015160001c126110da5760006110dd565b6111f881600261272c565b156112005750565b6040810151805161121390600290612e56565b8151811061122357611223612d8e565b60209081029190910101516040820151805161124190600190612e56565b8151811061125157611251612d8e565b602002602001015160001c136110da5760006110dd565b61127381600261272c565b1561127b5750565b6040810151805161128e90600290612e56565b8151811061129e5761129e612d8e565b6020908102919091010151604082015180516112bc90600190612e56565b815181106112cc576112cc612d8e565b602002602001015160001c146110da5760006110dd565b6112ee81600161272c565b156112f65750565b6040810151805161130990600190612e56565b8151811061131957611319612d8e565b602002602001015160001c600014611332576000611335565b60015b6040820151805160ff929092169161134f90600190612e56565b8151811061135f5761135f612d8e565b60200260200101818152505050565b61137981600261272c565b156113815750565b6040810151805161139490600290612e56565b815181106113a4576113a4612d8e565b6020026020010151816040015160018360400151516113c39190612e56565b815181106113d3576113d3612d8e565b60200260200101511681604001516002836040015151610a8d9190612e56565b6113fe81600261272c565b156114065750565b6040810151805161141990600290612e56565b8151811061142957611429612d8e565b6020026020010151816040015160018360400151516114489190612e56565b8151811061145857611458612d8e565b60200260200101511781604001516002836040015151610a8d9190612e56565b61148381600261272c565b1561148b5750565b6040810151805161149e90600290612e56565b815181106114ae576114ae612d8e565b6020026020010151816040015160018360400151516114cd9190612e56565b815181106114dd576114dd612d8e565b60200260200101511881604001516002836040015151610a8d9190612e56565b61150881600161272c565b156115105750565b6040810151805161152390600190612e56565b8151811061153357611533612d8e565b6020026020010151198160400151600183604001515161134f9190612e56565b61155e81600261272c565b156115665750565b604081015180516000919061157d90600190612e56565b8151811061158d5761158d612d8e565b602002602001015160001c90508060086115a79190612e10565b604083015180516115ba90600290612e56565b815181106115ca576115ca612d8e565b6020026020010151901b6001600160f81b031916826040015160028460400151516115f59190612e56565b8151811061160557611605612d8e565b6020026020010181815250506116208260400151600161274c565b82604001819052505050565b61163781600261272c565b1561163f5750565b604081015180516000919061165690600190612e56565b8151811061166657611666612d8e565b602002602001015160001c905060008260400151600284604001515161168c9190612e56565b8151811061169c5761169c612d8e565b602002602001015160001c90506000608083106116d9576116c284606001516040612800565b6116cc8385612dd3565b6116d69190612e56565b90505b801561172557606084015161171f906116f3602084612ec1565b156116ff576001611702565b60005b60ff16611710602085612e7f565b61171a9190612dd3565b6108d2565b60608501525b600061173685606001518585612862565b8051602082012060408701518051929350909161175590600290612e56565b8151811061176557611765612d8e565b60200260200101818152505061178085606001516040612800565b61178a8486612dd3565b11156117aa5760608501516117aa9060406117a58688612dd3565b61099d565b6117b98560400151600161274c565b85604001819052505050505050565b6117d3816001612915565b156117db5750565b6117ea81604001516001612939565b60408201819052805130919061134f90600190612e56565b61180d81600161272c565b156118155750565b604081015180516000919061182c90600190612e56565b8151811061183c5761183c612d8e565b6020908102919091010151604083015180519192506001600160a01b038316319161186990600190612e56565b8151811061187957611879612d8e565b6020026020010181815250505050565b611894816001612915565b1561189c5750565b6118ab81604001516001612939565b60408201819052805132919061134f90600190612e56565b6118ce816001612915565b156118d65750565b6118e581604001516001612939565b60408201819052805133919061134f90600190612e56565b611908816001612915565b156119105750565b61191f81604001516001612939565b60408201819052805134919061134f90600190612e56565b611942816001612915565b1561194a5750565b61195981604001516001612939565b60408201819052815151815190919061134f90600190612e56565b61197f816001612915565b156119875750565b61199681604001516001612939565b6040820181905280513a919061134f90600190612e56565b6119b981600161272c565b156119c15750565b60408101518051600091906119d890600190612e56565b815181106119e8576119e8612d8e565b602002602001015160001c90508040826040015160018460400151516118699190612e56565b611a19816001612915565b15611a215750565b611a3081604001516001612939565b60408201819052805141919061134f90600190612e56565b611a53816001612915565b15611a5b5750565b611a6a81604001516001612939565b60408201819052805142919061134f90600190612e56565b611a8d816001612915565b15611a955750565b611aa481604001516001612939565b60408201819052805143919061134f90600190612e56565b611ac7816001612915565b15611acf5750565b611ade81604001516001612939565b60408201819052805146919061134f90600190612e56565b611b01816001612915565b15611b095750565b611b1881604001516001612939565b60408201819052805147919061134f90600190612e56565b611b3b816001612915565b15611b435750565b611b5281604001516001612939565b60408201819052805148919061134f90600190612e56565b611b7581600161272c565b15611b7d5750565b610ab88160400151600161274c565b611b9781600161272c565b15611b9f5750565b6040810151805160009190611bb690600190612e56565b81518110611bc657611bc6612d8e565b602002602001015160001c9050600060808210611c0457611bec83606001516040612800565b611bf7602084612dd3565b611c019190612e56565b90505b8015611c24576060830151611c1e906116f3602084612ec1565b60608401525b611c32836060015183612800565b60408401518051611c4590600190612e56565b81518110611c5557611c55612d8e565b602002602001018181525050611c7083606001516040612800565b611c7b602084612dd3565b1115611c97576060830151611c979060406117a5602086612dd3565b505050565b611ca781600261272c565b15611caf5750565b6040810151805160009190611cc690600190612e56565b81518110611cd657611cd6612d8e565b602002602001015160001c9050600060808210611d1457611cfc83606001516040612800565b611d07602084612dd3565b611d119190612e56565b90505b8015611d34576060830151611d2e906116f3602084612ec1565b60608401525b611d7183606001518385604001516002876040015151611d549190612e56565b81518110611d6457611d64612d8e565b602002602001015161099d565b611d8083606001516040612800565b611d8b602084612dd3565b1115611da7576060830151611da79060406117a5602086612dd3565b611db68360400151600261274c565b8360400181905250505050565b611dce81600261272c565b15611dd65750565b6040810151805160009190611ded90600190612e56565b81518110611dfd57611dfd612d8e565b602002602001015160001c9050600060808210611e3b57611e2383606001516040612800565b611e2e600184612dd3565b611e389190612e56565b90505b8015611e5b576060830151611e55906116f3602084612ec1565b60608401525b611e9c83606001518360f886604001516002886040015151611e7d9190612e56565b81518110611e8d57611e8d612d8e565b6020026020010151901b6129e2565b611eab83606001516040612800565b611eb6600184612dd3565b1115611da7576060830151611da79060406117a5600186612dd3565b611edd81600161272c565b15611ee55750565b60008160a0015151600003611f0b57604082015180516000919061186990600190612e56565b6000805b8360a0015151811015611f885760408401518051611f2f90600190612e56565b81518110611f3f57611f3f612d8e565b60200260200101518460a001518281518110611f5d57611f5d612d8e565b602002602001015103611f765780915060019250611f88565b80611f8081612e3d565b915050611f0f565b50811515600003611fcb576040830151805160009190611faa90600190612e56565b81518110611fba57611fba612d8e565b602002602001018181525050505050565b8260c001518181518110611fe157611fe1612d8e565b602002602001015183604001516001856040015151611faa9190612e56565b61200b81600261272c565b156120135750565b604081015180516000919061202a90600190612e56565b8151811061203a5761203a612d8e565b6020026020010151905060008260400151600284604001515161205d9190612e56565b8151811061206d5761206d612d8e565b6020026020010151905060008060005b8560a00151518110156120cc57848660a0015182815181106120a1576120a1612d8e565b6020026020010151036120ba57809250600191506120cc565b806120c481612e3d565b91505061207d565b5080151560000361215a576120eb8560a001518660c001516001612a11565b60c087015260a08601819052805185919061210890600190612e56565b8151811061211857612118612d8e565b602090810291909101015260c0850151805184919061213990600190612e56565b8151811061214957612149612d8e565b60200260200101818152505061217e565b828560c00151838151811061217157612171612d8e565b6020026020010181815250505b6117b98560400151600261274c565b61219881600161272c565b156121a05750565b60408101518051600091906121b790600190612e56565b815181106121c7576121c7612d8e565b602002602001015160001c9050816000015181815181106121ea576121ea612d8e565b6020910101516001600160f81b031916605b60f81b14612208575050565b612213600182612e56565b6020830152604082015161162090600161274c565b61223381600261272c565b1561223b5750565b604081015180516000919061225290600190612e56565b8151811061226257612262612d8e565b602002602001015160001c90506000826040015160028460400151516122889190612e56565b8151811061229857612298612d8e565b602002602001015160001c9050826000015182815181106122bb576122bb612d8e565b6020910101516001600160f81b031916605b60f81b146122da57505050565b80600103611da7576122ed600183612e56565b6020840152611db68360400151600261274c565b61230c816001612915565b156123145750565b61232381604001516001612939565b604082018190526020820151815190919061134f90600190612e56565b61234b816001612915565b156123535750565b61236281604001516001612939565b60408201819052606082015151815190919061134f90600190612e56565b61238b826001612915565b15612394575050565b805160009081906123a6906020612e56565b905060005b602081101561240a578181106123f8576123c6816008612e10565b846123d18484612e56565b815181106123e1576123e1612d8e565b01602001516001600160f81b031916901c92909217915b8061240281612e3d565b9150506123ab565b5061241a84604001516001612939565b60408501819052805183919061243290600190612e56565b8151811061244257612442612d8e565b60200260200101818152505050505050565b61245f826001612915565b15612468575050565b612472828261272c565b1561247b575050565b6040820151805160009190612491908490612e56565b815181106124a1576124a1612d8e565b602002602001015190506124ba83604001516001612939565b604084018190528051829190611faa90600190612e56565b6124dc828261272c565b156124e5575050565b6040820151805182906124fa90600190612e56565b6125049190612e56565b8151811061251457612514612d8e565b6020026020010151826040015160018460400151516125339190612e56565b8151811061254357612543612d8e565b6020026020010151836040015160018560400151516125629190612e56565b8151811061257257612572612d8e565b6020026020010184604001518460018760400151516125919190612e56565b61259b9190612e56565b815181106125ab576125ab612d8e565b6020908102919091010191909152525050565b6125c981600261272c565b156125d15750565b60408101518051600091906125e890600190612e56565b815181106125f8576125f8612d8e565b602002602001015160001c905060008260400151600284604001515161261e9190612e56565b8151811061262e5761262e612d8e565b602002602001015160001c905061264a83606001518383612862565b60e0840152604083015161265f90600261274c565b60408401525050600061010090910152565b61267c81600261272c565b156126845750565b604081015180516000919061269b90600190612e56565b815181106126ab576126ab612d8e565b602002602001015160001c90506000826040015160028460400151516126d19190612e56565b815181106126e1576126e1612d8e565b602002602001015160001c90506126fd83606001518383612862565b60e0840152604083015161271290600261274c565b604084015250506001610120820152600061010090910152565b6000818360400151511015612743575060016108cc565b50600092915050565b6060600082845161275d9190612e56565b6001600160401b0381111561277457612774612e27565b60405190808252806020026020018201604052801561279d578160200160208202803683370190505b50905060005b8385516127b09190612e56565b811015610995578481815181106127c9576127c9612d8e565b60200260200101518282815181106127e3576127e3612d8e565b6020908102919091010152806127f881612e3d565b9150506127a3565b6000805b602081101561285b57612818816008612e10565b846128238386612dd3565b8151811061283357612833612d8e565b01602001516001600160f81b031916901c91909117908061285381612e3d565b915050612804565b5092915050565b6060816001600160401b0381111561287c5761287c612e27565b6040519080825280601f01601f1916602001820160405280156128a6576020820181803683370190505b50905060005b8281101561099557846128bf8286612dd3565b815181106128cf576128cf612d8e565b602001015160f81c60f81b8282815181106128ec576128ec612d8e565b60200101906001600160f81b031916908160001a9053508061290d81612e3d565b9150506128ac565b60006104008284604001515161292b9190612dd3565b1115612743575060016108cc565b6060600082845161294a9190612dd3565b6001600160401b0381111561296157612961612e27565b60405190808252806020026020018201604052801561298a578160200160208202803683370190505b50905060005b8451811015610995578481815181106129ab576129ab612d8e565b60200260200101518282815181106129c5576129c5612d8e565b6020908102919091010152806129da81612e3d565b915050612990565b808383815181106129f5576129f5612d8e565b60200101906001600160f81b031916908160001a905350505050565b6060806000838651612a239190612dd3565b6001600160401b03811115612a3a57612a3a612e27565b604051908082528060200260200182016040528015612a63578160200160208202803683370190505b5090506000848651612a759190612dd3565b6001600160401b03811115612a8c57612a8c612e27565b604051908082528060200260200182016040528015612ab5578160200160208202803683370190505b50905060005b8751811015612b4557878181518110612ad657612ad6612d8e565b6020026020010151838281518110612af057612af0612d8e565b602002602001018181525050868181518110612b0e57612b0e612d8e565b6020026020010151828281518110612b2857612b28612d8e565b602090810291909101015280612b3d81612e3d565b915050612abb565b5090969095509350505050565b60405180610140016040528060608152602001600081526020016060815260200160608152602001600081526020016060815260200160608152602001606081526020016000151581526020016000151581525090565b60008060208385031215612bbc57600080fd5b82356001600160401b0380821115612bd357600080fd5b818501915085601f830112612be757600080fd5b813581811115612bf657600080fd5b866020828501011115612c0857600080fd5b60209290920196919550909350505050565b6000815180845260005b81811015612c4057602081850181015186830182015201612c24565b506000602082860101526020601f19601f83011685010191505092915050565b600081518084526020808501945080840160005b83811015612c9057815187529582019590820190600101612c74565b509495945050505050565b6020815260008251610140806020850152612cba610160850183612c1a565b9150602085015160408501526040850151601f1980868503016060870152612ce28483612c60565b93506060870151915080868503016080870152612cff8483612c1a565b9350608087015160a087015260a08701519150808685030160c0870152612d268483612c60565b935060c08701519150808685030160e0870152612d438483612c60565b935060e08701519150610100818786030181880152612d628584612c1a565b94508088015192505050610120612d7c8187018315159052565b90950151151593019290925250919050565b634e487b7160e01b600052603260045260246000fd5b634e487b7160e01b600052601160045260246000fd5b60ff82811682821603908111156108cc576108cc612da4565b808201808211156108cc576108cc612da4565b60008085851115612df657600080fd5b83861115612e0357600080fd5b5050820193919092039150565b80820281158282048414176108cc576108cc612da4565b634e487b7160e01b600052604160045260246000fd5b600060018201612e4f57612e4f612da4565b5060010190565b818103818111156108cc576108cc612da4565b634e487b7160e01b600052601260045260246000fd5b600082612e8e57612e8e612e69565b500490565b600082612ea257612ea2612e69565b600160ff1b821460001984141615612ebc57612ebc612da4565b500590565b600082612ed057612ed0612e69565b500690565b600082612ee457612ee4612e69565b500790565b600181815b80851115612f24578160001904821115612f0a57612f0a612da4565b80851615612f1757918102915b93841c9390800290612eee565b509250929050565b600082612f3b575060016108cc565b81612f48575060006108cc565b8160018114612f5e5760028114612f6857612f84565b60019150506108cc565b60ff841115612f7957612f79612da4565b50506001821b6108cc565b5060208310610133831016604e8410600b8410161715612fa7575081810a6108cc565b612fb18383612ee9565b8060001904821115612fc557612fc5612da4565b029392505050565b6000612fd98383612f2c565b939250505056fea2646970667358221220a5e9afc76b22197ca7b08942b8a0239ecd1af499cc6cfabb3421a3ea47c16aea64736f6c63430008110033",
  "linkReferences": {},
  "deployedLinkReferences": {}
}