{
	"_format": "hh-sol-artifact-1",
	"contractName": "vEVM",
	"sourceName": "contracts/vEVM.sol",
	"abi": [
		{
			"inputs": [],
			"stateMutability": "nonpayable",
			"type": "constructor"
		},
		{
			"inputs": [
				{
					"internalType": "bytes",
					"name": "bytecode",
					"type": "bytes"
				},
				{
					"internalType": "bytes",
					"name": "data",
					"type": "bytes"
				},
				{
					"internalType": "uint256",
					"name": "value",
					"type": "uint256"
				}
			],
			"name": "execute",
			"outputs": [
				{
					"components": [
						{
							"internalType": "bytes",
							"name": "code",
							"type": "bytes"
						},
						{
							"internalType": "bytes",
							"name": "data",
							"type": "bytes"
						},
						{
							"internalType": "uint256",
							"name": "value",
							"type": "uint256"
						},
						{
							"internalType": "uint256",
							"name": "pc",
							"type": "uint256"
						},
						{
							"internalType": "bytes32[]",
							"name": "stack",
							"type": "bytes32[]"
						},
						{
							"internalType": "bytes",
							"name": "mem",
							"type": "bytes"
						},
						{
							"internalType": "uint256",
							"name": "msize",
							"type": "uint256"
						},
						{
							"internalType": "bytes32[]",
							"name": "storageKey",
							"type": "bytes32[]"
						},
						{
							"internalType": "bytes32[]",
							"name": "storageData",
							"type": "bytes32[]"
						},
						{
							"internalType": "bytes[]",
							"name": "logs",
							"type": "bytes[]"
						},
						{
							"internalType": "bytes",
							"name": "output",
							"type": "bytes"
						},
						{
							"internalType": "bool",
							"name": "running",
							"type": "bool"
						},
						{
							"internalType": "bool",
							"name": "reverting",
							"type": "bool"
						}
					],
					"internalType": "struct vEVM.vEVMState",
					"name": "",
					"type": "tuple"
				}
			],
			"stateMutability": "view",
			"type": "function"
		}
	],
	"bytecode": "0x608060405234801561001057600080fd5b50613a46806100206000396000f3fe608060405234801561001057600080fd5b506004361061002b5760003560e01c8063a8c5421114610030575b600080fd5b61004361003e3660046134e0565b610059565b6040516100509190613636565b60405180910390f35b61006161342c565b61006961342c565b86868080601f016020809104026020016040519081016040528093929190818152602001838380828437600092019190915250505090825250604080516020601f870181900481028201810190925285815290869086908190840183828082843760009201829052506020860194909452505050604082018490526060820181905260c0820181905260016101608301526101808201525b60008787836060015181811061011957610119613773565b909101356001600160f81b03191691505060008190036101455760006101608301526109a9565b6109a9565b6001600160f81b03198116600160f81b0361016357610140826109e6565b6001600160f81b03198116600160f91b036101815761014082610aa5565b6001600160f81b03198116600360f81b0361019f5761014082610b1e565b6001600160f81b03198116600160fa1b036101bd5761014082610b97565b6001600160f81b03198116600560f81b036101db5761014082610c10565b6001600160f81b03198116600360f91b036101f95761014082610c89565b6001600160f81b03198116600760f81b036102175761014082610d02565b6001600160f81b03198116600160fb1b036102355761014082610d7b565b6001600160f81b03198116600960f81b036102535761014082610ee9565b6001600160f81b03198116600560f91b036102715761014082611006565b6001600160f81b03198116600b60f81b0361028f576101408261107f565b6001600160f81b03198116600160fc1b036102ad5761014082611150565b6001600160f81b03198116601160f81b036102cb57610140826111e8565b6001600160f81b03198116600960f91b036102e95761014082611263565b6001600160f81b03198116601360f81b0361030757610140826112de565b6001600160f81b03198116600560fa1b036103255761014082611359565b6001600160f81b03198116601560f81b0361034357610140826113d4565b6001600160f81b03198116600b60f91b03610361576101408261145f565b6001600160f81b03198116601760f81b0361037f57610140826114e4565b6001600160f81b03198116600360fb1b0361039d5761014082611569565b6001600160f81b03198116601960f81b036103bb57610140826115ee565b6001600160f81b03198116600d60f91b036103d95761014082611644565b6001600160f81b03198116601b60f81b036103f757610140826116dc565b6001600160f81b03198116600760fa1b0361041557610140826117a3565b6001600160f81b03198116601d60f81b036104335761014082611833565b6001600160f81b03198116600160fd1b0361045157610140826118cf565b6001600160f81b03198116600360fc1b0361046f5761014082611a3e565b6001600160f81b03198116603160f81b0361048d5761014082611a78565b6001600160f81b03198116601960f91b036104ab5761014082611aff565b6001600160f81b03198116603360f81b036104c95761014082611b39565b6001600160f81b03198116600d60fa1b036104e75761014082611b73565b6001600160f81b03198116603560f81b036105055761014082611bb2565b6001600160f81b03198116601b60f91b036105235761014082611c8f565b6001600160f81b03198116600760fb1b036105415761014082611ccf565b6001600160f81b03198116601d60f91b0361055f5761014082611d0c565b6001600160f81b03198116603b60f81b0361057d5761014082611d46565b6001600160f81b03198116600160fe1b0361059b5761014082611da7565b6001600160f81b03198116604160f81b036105b95761014082611e07565b6001600160f81b03198116602160f91b036105d75761014082611e41565b6001600160f81b03198116604360f81b036105f55761014082611e7b565b6001600160f81b03198116602360f91b036106135761014082611eb5565b6001600160f81b03198116604760f81b036106315761014082611eef565b6001600160f81b03198116600960fb1b0361064f5761014082611f29565b6001600160f81b03198116600560fc1b0361066d5761014082611f63565b6001600160f81b03198116605160f81b0361068b5761014082611f85565b6001600160f81b03198116602960f91b036106a95761014082612038565b6001600160f81b03198116605360f81b036106c7576101408261213c565b6001600160f81b03198116601560fa1b036106e55761014082612222565b6001600160f81b03198116605560f81b036107035761014082612330565b6001600160f81b03198116602b60f91b0361072157610140826124c1565b6001600160f81b03198116605760f81b0361073f576101408261255c565b6001600160f81b03198116600b60fb1b0361075d5761014082612635565b6001600160f81b03198116605960f81b0361077b5761014082612674565b605b60f81b6001600160f81b031982161461014057600360fd1b6001600160f81b03198216108015906107bc5750607f60f81b6001600160f81b0319821611155b1561086e5760006107d2605f60f884901c61379f565b60ff169050610852838a8a866060015160016107ee91906137b8565b90858860600151600161080191906137b8565b61080b91906137b8565b92610818939291906137cb565b8080601f0160208091040260200160405190810160405280939291908181526020018383808284376000920191909152506126b492505050565b808360600181815161086491906137b8565b9052506109a99050565b600160ff1b6001600160f81b031982161080159061089a5750608f60f81b6001600160f81b0319821611155b156108ba57610140826108b2607f60f885901c61379f565b60ff16612788565b600960fc1b6001600160f81b03198216108015906108e65750609f60f81b6001600160f81b0319821611155b1561090657610140826108fe608f60f885901c61379f565b60ff16612806565b600560fd1b6001600160f81b03198216108015906109325750602960fa1b6001600160f81b0319821611155b15610952576101408261094a60a060f885901c61379f565b60ff166128f2565b6001600160f81b0319811660f360f81b036109705761014082612bb7565b6001600160f81b0319811660fd60f81b0361098e5761014082612c6b565b6001600160f81b031980821690036109a9576109a982612d27565b8161016001516109b957506109dc565b6001826060018181516109cc91906137b8565b9052505060608101518611610101575b9695505050505050565b6109f1816002612d69565b156109f95750565b60808101518051610a0c906002906137f5565b81518110610a1c57610a1c613773565b602090810291909101015160808201518051610a3a906001906137f5565b81518110610a4a57610a4a613773565b602002602001015160001c610a5f91906137b8565b60808201518051610a72906002906137f5565b81518110610a8257610a82613773565b602002602001018181525050610a9d81608001516001612d8a565b608090910152565b610ab0816002612d69565b15610ab85750565b60808101518051610acb906002906137f5565b81518110610adb57610adb613773565b602090810291909101015160808201518051610af9906001906137f5565b81518110610b0957610b09613773565b602002602001015160001c610a5f9190613808565b610b29816002612d69565b15610b315750565b60808101518051610b44906002906137f5565b81518110610b5457610b54613773565b602090810291909101015160808201518051610b72906001906137f5565b81518110610b8257610b82613773565b602002602001015160001c610a5f91906137f5565b610ba2816002612d69565b15610baa5750565b60808101518051610bbd906002906137f5565b81518110610bcd57610bcd613773565b602090810291909101015160808201518051610beb906001906137f5565b81518110610bfb57610bfb613773565b602002602001015160001c610a5f9190613835565b610c1b816002612d69565b15610c235750565b60808101518051610c36906002906137f5565b81518110610c4657610c46613773565b602090810291909101015160808201518051610c64906001906137f5565b81518110610c7457610c74613773565b602002602001015160001c610a5f9190613849565b610c94816002612d69565b15610c9c5750565b60808101518051610caf906002906137f5565b81518110610cbf57610cbf613773565b602090810291909101015160808201518051610cdd906001906137f5565b81518110610ced57610ced613773565b602002602001015160001c610a5f9190613877565b610d0d816002612d69565b15610d155750565b60808101518051610d28906002906137f5565b81518110610d3857610d38613773565b602090810291909101015160808201518051610d56906001906137f5565b81518110610d6657610d66613773565b602002602001015160001c610a5f919061388b565b610d86816003612d69565b15610d8e5750565b60808101518051610da1906003906137f5565b81518110610db157610db1613773565b602002602001015160001c600003610dfb576080810151805160009190610dda906003906137f5565b81518110610dea57610dea613773565b602002602001018181525050610eda565b6080810151805160009190610e12906001906137f5565b81518110610e2257610e22613773565b602002602001015160001c9050600082608001516002846080015151610e4891906137f5565b81518110610e5857610e58613773565b602002602001015160001c9050600083608001516003856080015151610e7e91906137f5565b81518110610e8e57610e8e613773565b602002602001015160001c9050600081838508608086015180519192508291610eb9906003906137f5565b81518110610ec957610ec9613773565b602002602001018181525050505050505b610a9d81608001516002612d8a565b610ef4816003612d69565b15610efc5750565b60808101518051610f0f906003906137f5565b81518110610f1f57610f1f613773565b602002602001015160001c600003610f48576080810151805160009190610dda906003906137f5565b6080810151805160009190610f5f906001906137f5565b81518110610f6f57610f6f613773565b602002602001015160001c9050600082608001516002846080015151610f9591906137f5565b81518110610fa557610fa5613773565b602002602001015160001c9050600083608001516003856080015151610fcb91906137f5565b81518110610fdb57610fdb613773565b602002602001015160001c9050600081838509608086015180519192508291610eb9906003906137f5565b611011816002612d69565b156110195750565b6080810151805161102c906002906137f5565b8151811061103c5761103c613773565b60209081029190910101516080820151805161105a906001906137f5565b8151811061106a5761106a613773565b602002602001015160001c610a5f9190613983565b61108a816002612d69565b156110925750565b60808101518051600091906110a9906001906137f5565b815181106110b9576110b9613773565b602002602001015160001c90506000826080015160028460800151516110df91906137f5565b815181106110ef576110ef613773565b60209081029190910101516080840151805191925082840b91829190611117906002906137f5565b8151811061112757611127613773565b60200260200101818152505061114284608001516001612d8a565b846080018190525050505050565b61115b816002612d69565b156111635750565b60808101518051611176906002906137f5565b8151811061118657611186613773565b6020908102919091010151608082015180516111a4906001906137f5565b815181106111b4576111b4613773565b602002602001015160001c106111cb5760006111ce565b60015b6080820151805160ff9290921691610a72906002906137f5565b6111f3816002612d69565b156111fb5750565b6080810151805161120e906002906137f5565b8151811061121e5761121e613773565b60209081029190910101516080820151805161123c906001906137f5565b8151811061124c5761124c613773565b602002602001015160001c116111cb5760006111ce565b61126e816002612d69565b156112765750565b60808101518051611289906002906137f5565b8151811061129957611299613773565b6020908102919091010151608082015180516112b7906001906137f5565b815181106112c7576112c7613773565b602002602001015160001c126111cb5760006111ce565b6112e9816002612d69565b156112f15750565b60808101518051611304906002906137f5565b8151811061131457611314613773565b602090810291909101015160808201518051611332906001906137f5565b8151811061134257611342613773565b602002602001015160001c136111cb5760006111ce565b611364816002612d69565b1561136c5750565b6080810151805161137f906002906137f5565b8151811061138f5761138f613773565b6020908102919091010151608082015180516113ad906001906137f5565b815181106113bd576113bd613773565b602002602001015160001c146111cb5760006111ce565b6113df816001612d69565b156113e75750565b608081015180516113fa906001906137f5565b8151811061140a5761140a613773565b602002602001015160001c600014611423576000611426565b60015b6080820151805160ff9290921691611440906001906137f5565b8151811061145057611450613773565b60200260200101818152505050565b61146a816002612d69565b156114725750565b60808101518051611485906002906137f5565b8151811061149557611495613773565b6020026020010151816080015160018360800151516114b491906137f5565b815181106114c4576114c4613773565b60200260200101511681608001516002836080015151610a7291906137f5565b6114ef816002612d69565b156114f75750565b6080810151805161150a906002906137f5565b8151811061151a5761151a613773565b60200260200101518160800151600183608001515161153991906137f5565b8151811061154957611549613773565b60200260200101511781608001516002836080015151610a7291906137f5565b611574816002612d69565b1561157c5750565b6080810151805161158f906002906137f5565b8151811061159f5761159f613773565b6020026020010151816080015160018360800151516115be91906137f5565b815181106115ce576115ce613773565b60200260200101511881608001516002836080015151610a7291906137f5565b6115f9816001612d69565b156116015750565b60808101518051611614906001906137f5565b8151811061162457611624613773565b6020026020010151198160800151600183608001515161144091906137f5565b61164f816002612d69565b156116575750565b608081015180516000919061166e906001906137f5565b8151811061167e5761167e613773565b602002602001015160001c90506000826080015160028460800151516116a491906137f5565b815181106116b4576116b4613773565b60209081029190910101516080840151805191925082841a91829190611117906002906137f5565b6116e7816002612d69565b156116ef5750565b6080810151805160009190611706906001906137f5565b8151811061171657611716613773565b602002602001015160001c9050808260800151600284608001515161173b91906137f5565b8151811061174b5761174b613773565b6020026020010151901b8260800151600284608001515161176c91906137f5565b8151811061177c5761177c613773565b60200260200101818152505061179782608001516001612d8a565b82608001819052505050565b6117ae816002612d69565b156117b65750565b60808101518051600091906117cd906001906137f5565b815181106117dd576117dd613773565b602002602001015160001c9050808260800151600284608001515161180291906137f5565b8151811061181257611812613773565b6020026020010151901c8260800151600284608001515161176c91906137f5565b61183e816002612d69565b156118465750565b608081015180516000919061185d906001906137f5565b8151811061186d5761186d613773565b602002602001015160001c905060008260800151600284608001515161189391906137f5565b815181106118a3576118a3613773565b602002602001015160001c9050600081831d9050808460800151600286608001515161111791906137f5565b6118da816002612d69565b156118e25750565b60808101518051600091906118f9906001906137f5565b8151811061190957611909613773565b602002602001015160001c905060008260800151600284608001515161192f91906137f5565b8151811061193f5761193f613773565b602002602001015160001c905060008360c00151828461195f91906137b8565b106119805760c084015161197383856137b8565b61197d91906137f5565b90505b80156119d45760a08401516119c69061199a602084613877565b156119a65760016119a9565b60005b60ff166119b7602085613835565b6119c191906137b8565b612e46565b60a085018190525160c08501525b60006119e58560a001518585612f09565b80516020820120608087015180519293509091611a04906002906137f5565b81518110611a1457611a14613773565b602002602001018181525050611a2f85608001516001612d8a565b85608001819052505050505050565b611a49816001612fbc565b15611a515750565b611a6081608001516001612fe0565b608082018190528051309190611440906001906137f5565b611a83816001612d69565b15611a8b5750565b6080810151805160009190611aa2906001906137f5565b81518110611ab257611ab2613773565b6020908102919091010151608083015180519192506001600160a01b0383163191611adf906001906137f5565b81518110611aef57611aef613773565b6020026020010181815250505050565b611b0a816001612fbc565b15611b125750565b611b2181608001516001612fe0565b608082018190528051329190611440906001906137f5565b611b44816001612fbc565b15611b4c5750565b611b5b81608001516001612fe0565b608082018190528051339190611440906001906137f5565b611b7e816001612fbc565b15611b865750565b611b9581608001516001612fe0565b6080820181905260408201518151909190611440906001906137f5565b611bbd816001612d69565b15611bc55750565b6080810151805160009190611bdc906001906137f5565b81518110611bec57611bec613773565b602002602001015160001c90506000826020015151602083611c0e91906137b8565b10611c3357826020015151602083611c2691906137b8565b611c3091906137f5565b90505b8015611c4d57611c47836020015182613089565b60208401525b611c5b836020015183613142565b60808401518051611c6e906001906137f5565b81518110611c7e57611c7e613773565b602002602001018181525050505050565b611c9a816001612fbc565b15611ca25750565b611cb181608001516001612fe0565b608082018190526020820151518151909190611440906001906137f5565b611cda816001612fbc565b15611ce25750565b611cf181608001516001612fe0565b608082018190528151518151909190611440906001906137f5565b611d17816001612fbc565b15611d1f5750565b611d2e81608001516001612fe0565b6080820181905280513a9190611440906001906137f5565b611d51816001612d69565b15611d595750565b6080810151805160009190611d70906001906137f5565b81518110611d8057611d80613773565b602090810291909101015160808301518051919250823b91829190611c6e906001906137f5565b611db2816001612d69565b15611dba5750565b6080810151805160009190611dd1906001906137f5565b81518110611de157611de1613773565b602002602001015160001c9050804082608001516001846080015151611adf91906137f5565b611e12816001612fbc565b15611e1a5750565b611e2981608001516001612fe0565b608082018190528051419190611440906001906137f5565b611e4c816001612fbc565b15611e545750565b611e6381608001516001612fe0565b608082018190528051429190611440906001906137f5565b611e86816001612fbc565b15611e8e5750565b611e9d81608001516001612fe0565b608082018190528051439190611440906001906137f5565b611ec0816001612fbc565b15611ec85750565b611ed781608001516001612fe0565b608082018190528051469190611440906001906137f5565b611efa816001612fbc565b15611f025750565b611f1181608001516001612fe0565b608082018190528051479190611440906001906137f5565b611f34816001612fbc565b15611f3c5750565b611f4b81608001516001612fe0565b608082018190528051489190611440906001906137f5565b611f6e816001612d69565b15611f765750565b610a9d81608001516001612d8a565b611f90816001612d69565b15611f985750565b6080810151805160009190611faf906001906137f5565b81518110611fbf57611fbf613773565b602002602001015160001c905060008260c00151602083611fe091906137b8565b106120025760c0830151611ff56020846137b8565b611fff91906137f5565b90505b801561202a5760a083015161201c9061199a602084613877565b60a084018190525160c08401525b611c5b8360a0015183613142565b612043816002612d69565b1561204b5750565b6080810151805160009190612062906001906137f5565b8151811061207257612072613773565b602002602001015160001c905060008260c0015160208361209391906137b8565b106120b55760c08301516120a86020846137b8565b6120b291906137f5565b90505b80156120dd5760a08301516120cf9061199a602084613877565b60a084018190525160c08401525b6121208360a0015183856080015160028760800151516120fd91906137f5565b8151811061210d5761210d613773565b602002602001015160001c60001b6131a4565b61212f83608001516002612d8a565b8360800181905250505050565b612147816002612d69565b1561214f5750565b6080810151805160009190612166906001906137f5565b8151811061217657612176613773565b602002602001015160001c905060008260c0015160018361219791906137b8565b106121b95760c08301516121ac6001846137b8565b6121b691906137f5565b90505b80156121e15760a08301516121d39061199a602084613877565b60a084018190525160c08401525b6121208360a001518360f88660800151600288608001515161220391906137f5565b8151811061221357612213613773565b6020026020010151901b613208565b61222d816001612d69565b156122355750565b60008160e001515160000361225b576080820151805160009190611adf906001906137f5565b6000805b8360e00151518110156122d8576080840151805161227f906001906137f5565b8151811061228f5761228f613773565b60200260200101518460e0015182815181106122ad576122ad613773565b6020026020010151036122c657809150600192506122d8565b806122d081613996565b91505061225f565b508115156000036122fa576080830151805160009190611c6e906001906137f5565b826101000151818151811061231157612311613773565b602002602001015183608001516001856080015151611c6e91906137f5565b61233b816002612d69565b156123435750565b608081015180516000919061235a906001906137f5565b8151811061236a5761236a613773565b6020026020010151905060008260800151600284608001515161238d91906137f5565b8151811061239d5761239d613773565b6020026020010151905060008060005b8560e00151518110156123fc57848660e0015182815181106123d1576123d1613773565b6020026020010151036123ea57809250600191506123fc565b806123f481613996565b9150506123ad565b5080151560000361248d5761241c8560e001518661010001516001613237565b61010087015260e08601819052805185919061243a906001906137f5565b8151811061244a5761244a613773565b6020908102919091010152610100850151805184919061246c906001906137f5565b8151811061247c5761247c613773565b6020026020010181815250506124b2565b8285610100015183815181106124a5576124a5613773565b6020026020010181815250505b611a2f85608001516002612d8a565b6124cc816001612d69565b156124d45750565b60808101518051600091906124eb906001906137f5565b815181106124fb576124fb613773565b602002602001015160001c90508160000151818151811061251e5761251e613773565b6020910101516001600160f81b031916605b60f81b1461253c575050565b6125476001826137f5565b60608301526080820151611797906001612d8a565b612567816002612d69565b1561256f5750565b6080810151805160009190612586906001906137f5565b8151811061259657612596613773565b602002602001015160001c90506000826080015160028460800151516125bc91906137f5565b815181106125cc576125cc613773565b602002602001015160001c9050826000015182815181106125ef576125ef613773565b6020910101516001600160f81b031916605b60f81b1461260e57505050565b80600103612120576126216001836137f5565b606084015261212f83608001516002612d8a565b612640816001612fbc565b156126485750565b61265781608001516001612fe0565b6080820181905260608201518151909190611440906001906137f5565b61267f816001612fbc565b156126875750565b61269681608001516001612fe0565b6080820181905260a0820151518151909190611440906001906137f5565b6126bf826001612fbc565b156126c8575050565b805160009081906126da9060206137f5565b905060005b602081101561273e5781811061272c576126fa816008613808565b8461270584846137f5565b8151811061271557612715613773565b01602001516001600160f81b031916901c92909217915b8061273681613996565b9150506126df565b5061274e84608001516001612fe0565b608085018190528051839190612766906001906137f5565b8151811061277657612776613773565b60200260200101818152505050505050565b612793826001612fbc565b1561279c575050565b6127a68282612d69565b156127af575050565b60808201518051600091906127c59084906137f5565b815181106127d5576127d5613773565b602002602001015190506127ee83608001516001612fe0565b608084018190528051829190611c6e906001906137f5565b6128108282612d69565b15612819575050565b60808201518051829061282e906001906137f5565b61283891906137f5565b8151811061284857612848613773565b60200260200101518260800151600184608001515161286791906137f5565b8151811061287757612877613773565b60200260200101518360800151600185608001515161289691906137f5565b815181106128a6576128a6613773565b6020026020010184608001518460018760800151516128c591906137f5565b6128cf91906137f5565b815181106128df576128df613773565b6020908102919091010191909152525050565b612906826129018360026137b8565b612d69565b1561290f575050565b306000826001600160401b0381111561292a5761292a6139af565b604051908082528060200260200182016040528015612953578160200160208202803683370190505b50905060005b838110156129c757608085015180518290612976906003906137f5565b61298091906137f5565b8151811061299057612990613773565b60200260200101518282815181106129aa576129aa613773565b6020908102919091010152806129bf81613996565b915050612959565b5060808401518051600091906129df906001906137f5565b815181106129ef576129ef613773565b602002602001015160001c9050600085608001516002876080015151612a1591906137f5565b81518110612a2557612a25613773565b602002602001015160001c90506000816001600160401b03811115612a4c57612a4c6139af565b6040519080825280601f01601f191660200182016040528015612a76576020820181803683370190505b509050612a888760a001518484612f09565b9050612a9a8761012001516001613378565b610120880152600082612aae886020613808565b612ab99060206137b8565b612ac391906137b8565b9050806001600160401b03811115612add57612add6139af565b6040519080825280601f01601f191660200182016040528015612b07576020820181803683370190505b506101208901518051612b1c906001906137f5565b81518110612b2c57612b2c613773565b6020026020010181905250858583604051602001612b4c939291906139c5565b60408051601f198184030181529190526101208901518051612b70906001906137f5565b81518110612b8057612b80613773565b6020026020010181905250612ba58860800151886002612ba091906137b8565b612d8a565b88608001819052505050505050505050565b612bc2816002612d69565b15612bca5750565b6080810151805160009190612be1906001906137f5565b81518110612bf157612bf1613773565b602002602001015160001c9050600082608001516002846080015151612c1791906137f5565b81518110612c2757612c27613773565b602002602001015160001c9050612c438360a001518383612f09565b6101408401526080830151612c59906002612d8a565b60808401525050600061016090910152565b612c76816002612d69565b15612c7e5750565b6080810151805160009190612c95906001906137f5565b81518110612ca557612ca5613773565b602002602001015160001c9050600082608001516002846080015151612ccb91906137f5565b81518110612cdb57612cdb613773565b602002602001015160001c9050612cf78360a001518383612f09565b6101408401526080830151612d0d906002612d8a565b608084015250506001610180820152600061016090910152565b612d32816001612d69565b15612d3a5750565b612d4981608001516001612d8a565b608082015260408051600080825260208201909252825261016090910152565b6000818360800151511015612d8057506001612d84565b5060005b92915050565b60606000828451612d9b91906137f5565b6001600160401b03811115612db257612db26139af565b604051908082528060200260200182016040528015612ddb578160200160208202803683370190505b50905060005b838551612dee91906137f5565b811015612e3e57848181518110612e0757612e07613773565b6020026020010151828281518110612e2157612e21613773565b602090810291909101015280612e3681613996565b915050612de1565b509392505050565b60606000612e55836020613808565b8451612e6191906137b8565b6001600160401b03811115612e7857612e786139af565b6040519080825280601f01601f191660200182016040528015612ea2576020820181803683370190505b50905060005b8451811015612e3e57848181518110612ec357612ec3613773565b602001015160f81c60f81b828281518110612ee057612ee0613773565b60200101906001600160f81b031916908160001a90535080612f0181613996565b915050612ea8565b6060816001600160401b03811115612f2357612f236139af565b6040519080825280601f01601f191660200182016040528015612f4d576020820181803683370190505b50905060005b82811015612e3e5784612f6682866137b8565b81518110612f7657612f76613773565b602001015160f81c60f81b828281518110612f9357612f93613773565b60200101906001600160f81b031916908160001a90535080612fb481613996565b915050612f53565b600061040082846080015151612fd291906137b8565b1115612d8057506001612d84565b60606000828451612ff191906137b8565b6001600160401b03811115613008576130086139af565b604051908082528060200260200182016040528015613031578160200160208202803683370190505b50905060005b8451811015612e3e5784818151811061305257613052613773565b602002602001015182828151811061306c5761306c613773565b60209081029190910101528061308181613996565b915050613037565b6060600082845161309a91906137b8565b6001600160401b038111156130b1576130b16139af565b6040519080825280601f01601f1916602001820160405280156130db576020820181803683370190505b50905060005b8451811015612e3e578481815181106130fc576130fc613773565b602001015160f81c60f81b82828151811061311957613119613773565b60200101906001600160f81b031916908160001a9053508061313a81613996565b9150506130e1565b6000805b602081101561319d5761315a816008613808565b8461316583866137b8565b8151811061317557613175613773565b01602001516001600160f81b031916901c91909117908061319581613996565b915050613146565b5092915050565b60005b6020811015613202576131bb816008613808565b82901b846131c983866137b8565b815181106131d9576131d9613773565b60200101906001600160f81b031916908160001a905350806131fa81613996565b9150506131a7565b50505050565b8083838151811061321b5761321b613773565b60200101906001600160f81b031916908160001a905350505050565b606080600083865161324991906137b8565b6001600160401b03811115613260576132606139af565b604051908082528060200260200182016040528015613289578160200160208202803683370190505b509050600084865161329b91906137b8565b6001600160401b038111156132b2576132b26139af565b6040519080825280602002602001820160405280156132db578160200160208202803683370190505b50905060005b875181101561336b578781815181106132fc576132fc613773565b602002602001015183828151811061331657613316613773565b60200260200101818152505086818151811061333457613334613773565b602002602001015182828151811061334e5761334e613773565b60209081029190910101528061336381613996565b9150506132e1565b5090969095509350505050565b6060600082845161338991906137b8565b6001600160401b038111156133a0576133a06139af565b6040519080825280602002602001820160405280156133d357816020015b60608152602001906001900390816133be5790505b50905060005b8451811015612e3e578481815181106133f4576133f4613773565b602002602001015182828151811061340e5761340e613773565b6020026020010181905250808061342490613996565b9150506133d9565b604051806101a0016040528060608152602001606081526020016000815260200160008152602001606081526020016060815260200160008152602001606081526020016060815260200160608152602001606081526020016000151581526020016000151581525090565b60008083601f8401126134aa57600080fd5b5081356001600160401b038111156134c157600080fd5b6020830191508360208285010111156134d957600080fd5b9250929050565b6000806000806000606086880312156134f857600080fd5b85356001600160401b038082111561350f57600080fd5b61351b89838a01613498565b9097509550602088013591508082111561353457600080fd5b5061354188828901613498565b96999598509660400135949350505050565b60005b8381101561356e578181015183820152602001613556565b50506000910152565b6000815180845261358f816020860160208601613553565b601f01601f19169290920160200192915050565b600081518084526020808501945080840160005b838110156135d3578151875295820195908201906001016135b7565b509495945050505050565b600082825180855260208086019550808260051b84010181860160005b8481101561362957601f19868403018952613617838351613577565b988401989250908301906001016135fb565b5090979650505050505050565b60208152600082516101a08060208501526136556101c0850183613577565b91506020850151601f19808685030160408701526136738483613577565b9350604087015160608701526060870151608087015260808701519150808685030160a08701526136a484836135a3565b935060a08701519150808685030160c08701526136c18483613577565b935060c087015160e087015260e087015191506101008187860301818801526136ea85846135a3565b94508088015192505061012081878603018188015261370985846135a3565b94508088015192505061014081878603018188015261372885846135de565b9450808801519250506101608187860301818801526137478584613577565b945080880151925050506101806137618187018315159052565b90950151151593019290925250919050565b634e487b7160e01b600052603260045260246000fd5b634e487b7160e01b600052601160045260246000fd5b60ff8281168282160390811115612d8457612d84613789565b80820180821115612d8457612d84613789565b600080858511156137db57600080fd5b838611156137e857600080fd5b5050820193919092039150565b81810381811115612d8457612d84613789565b8082028115828204841417612d8457612d84613789565b634e487b7160e01b600052601260045260246000fd5b6000826138445761384461381f565b500490565b6000826138585761385861381f565b600160ff1b82146000198414161561387257613872613789565b500590565b6000826138865761388661381f565b500690565b60008261389a5761389a61381f565b500790565b600181815b808511156138da5781600019048211156138c0576138c0613789565b808516156138cd57918102915b93841c93908002906138a4565b509250929050565b6000826138f157506001612d84565b816138fe57506000612d84565b8160018114613914576002811461391e5761393a565b6001915050612d84565b60ff84111561392f5761392f613789565b50506001821b612d84565b5060208310610133831016604e8410600b841016171561395d575081810a612d84565b613967838361389f565b806000190482111561397b5761397b613789565b029392505050565b600061398f83836138e2565b9392505050565b6000600182016139a8576139a8613789565b5060010190565b634e487b7160e01b600052604160045260246000fd5b83815260006020808301855182870160005b828110156139f3578151845292840192908401906001016139d7565b5050508451613a058183858901613553565b01969550505050505056fea264697066735822122037b0473cae1ec5c6e4ec581fce8d34330439290f9e68288c057e74adf81ca17c64736f6c63430008110033",
	"linkReferences": {},
	"deployedLinkReferences": {}
}