{
	"_format": "hh-sol-artifact-1",
	"contractName": "vEVM",
	"sourceName": "contracts/vEVM.sol",
	"abi": [
		{
			"inputs": [],
			"stateMutability": "nonpayable",
			"type": "constructor"
		},
		{
			"inputs": [
				{
					"internalType": "bytes",
					"name": "bytecode",
					"type": "bytes"
				},
				{
					"internalType": "bytes",
					"name": "data",
					"type": "bytes"
				},
				{
					"internalType": "uint256",
					"name": "value",
					"type": "uint256"
				}
			],
			"name": "execute",
			"outputs": [
				{
					"components": [
						{
							"internalType": "bytes",
							"name": "code",
							"type": "bytes"
						},
						{
							"internalType": "bytes",
							"name": "data",
							"type": "bytes"
						},
						{
							"internalType": "uint256",
							"name": "value",
							"type": "uint256"
						},
						{
							"internalType": "uint256",
							"name": "pc",
							"type": "uint256"
						},
						{
							"internalType": "bytes32[]",
							"name": "stack",
							"type": "bytes32[]"
						},
						{
							"internalType": "bytes",
							"name": "mem",
							"type": "bytes"
						},
						{
							"internalType": "uint256",
							"name": "msize",
							"type": "uint256"
						},
						{
							"internalType": "bytes32[]",
							"name": "storageKey",
							"type": "bytes32[]"
						},
						{
							"internalType": "bytes32[]",
							"name": "storageData",
							"type": "bytes32[]"
						},
						{
							"internalType": "bytes[]",
							"name": "logs",
							"type": "bytes[]"
						},
						{
							"internalType": "bytes",
							"name": "output",
							"type": "bytes"
						},
						{
							"internalType": "bool",
							"name": "running",
							"type": "bool"
						},
						{
							"internalType": "bool",
							"name": "reverting",
							"type": "bool"
						}
					],
					"internalType": "struct vEVM.vEVMState",
					"name": "",
					"type": "tuple"
				}
			],
			"stateMutability": "view",
			"type": "function"
		}
	],
	"bytecode": "0x608060405234801561001057600080fd5b506136ac806100206000396000f3fe608060405234801561001057600080fd5b506004361061002b5760003560e01c8063a8c5421114610030575b600080fd5b61004361003e366004613132565b610059565b6040516100509190613285565b60405180910390f35b61006161307e565b61006961307e565b86868080601f016020809104026020016040519081016040528093929190818152602001838380828437600092019190915250505090825250604080516020601f870181900481028201810190925285815290869086908190840183828082843760009201829052506020860194909452505050604082018490526060820181905260c0820181905260016101608301526101808201525b600087878360600151818110610119576101196133c2565b909101356001600160f81b03191691505060008190036101455760006101608301526109be565b6109be565b6001600160f81b03198116600160f81b0361016357610140826109fb565b6001600160f81b03198116600160f91b036101815761014082610aab565b6001600160f81b03198116600360f81b0361019f5761014082610af8565b6001600160f81b03198116600160fa1b036101bd5761014082610b45565b6001600160f81b03198116600560f81b036101db5761014082610b92565b6001600160f81b03198116600360f91b036101f95761014082610c0b565b6001600160f81b03198116600760f81b036102175761014082610c58565b6001600160f81b03198116600160fb1b036102355761014082610cd1565b6001600160f81b03198116600960f81b036102535761014082610dec565b6001600160f81b03198116600560f91b036102715761014082610e9d565b6001600160f81b03198116600b60f81b0361028f5761014082610eea565b6001600160f81b03198116600160fc1b036102ad5761014082610fa3565b6001600160f81b03198116601160f81b036102cb576101408261100f565b6001600160f81b03198116600960f91b036102e9576101408261105e565b6001600160f81b03198116601360f81b0361030757610140826110d9565b6001600160f81b03198116600560fa1b036103255761014082611154565b6001600160f81b03198116601560f81b0361034357610140826111a3565b6001600160f81b03198116600b60f91b036103615761014082611216565b6001600160f81b03198116601760f81b0361037f576101408261129b565b6001600160f81b03198116600360fb1b0361039d5761014082611320565b6001600160f81b03198116601960f81b036103bb57610140826113a5565b6001600160f81b03198116600d60f91b036103d957610140826113fb565b6001600160f81b03198116601b60f81b036103f757610140826114d4565b6001600160f81b03198116600760fa1b036104155761014082611564565b6001600160f81b03198116601d60f81b0361043357610140826115f4565b6001600160f81b03198116600160fd1b03610451576101408261165c565b6001600160f81b03198116600360fc1b0361046f57610140826117cb565b6001600160f81b03198116603160f81b0361048d5761014082611805565b6001600160f81b03198116601960f91b036104ab576101408261188c565b6001600160f81b03198116603360f81b036104c957610140826118c6565b6001600160f81b03198116600d60fa1b036104e75761014082611900565b6001600160f81b03198116603560f81b03610505576101408261193f565b6001600160f81b03198116601b60f91b036105235761014082611a0b565b6001600160f81b03198116600760fb1b036105415761014082611a4b565b6001600160f81b03198116601d60f91b0361055f5761014082611a88565b6001600160f81b03198116603b60f81b0361057d5761014082611ac2565b6001600160f81b03198116600160fe1b0361059b5761014082611b23565b6001600160f81b03198116604160f81b036105b95761014082611b83565b6001600160f81b03198116602160f91b036105d75761014082611bbd565b6001600160f81b03198116604360f81b036105f55761014082611bf7565b6001600160f81b03198116602360f91b036106135761014082611c31565b6001600160f81b03198116604760f81b036106315761014082611c6b565b6001600160f81b03198116600960fb1b0361064f5761014082611ca5565b6001600160f81b03198116600560fc1b0361066d5761014082611cdf565b6001600160f81b03198116605160f81b0361068b5761014082611d01565b6001600160f81b03198116602960f91b036106a95761014082611d9c565b6001600160f81b03198116605360f81b036106c75761014082611e6d565b6001600160f81b03198116601560fa1b036106e55761014082611f53565b6001600160f81b03198116605560f81b036107035761014082612061565b6001600160f81b03198116602b60f91b0361072157610140826121f2565b6001600160f81b03198116605760f81b0361073f576101408261228d565b6001600160f81b03198116600b60fb1b0361075d5761014082612366565b6001600160f81b03198116605960f81b0361077b57610140826123a5565b605b60f81b6001600160f81b031982161461014057600360fd1b6001600160f81b03198216108015906107bc5750607f60f81b6001600160f81b0319821611155b1561086e5760006107d2605f60f884901c6133ee565b60ff169050610852838a8a866060015160016107ee9190613407565b9085886060015160016108019190613407565b61080b9190613407565b926108189392919061341a565b8080601f0160208091040260200160405190810160405280939291908181526020018383808284376000920191909152506123e592505050565b80836060018181516108649190613407565b9052506109be9050565b600160ff1b6001600160f81b031982161080159061089a5750608f60f81b6001600160f81b0319821611155b156108c55760006108b0607f60f884901c6133ee565b60ff1690506108bf8382612473565b506109be565b600960fc1b6001600160f81b03198216108015906108f15750609f60f81b6001600160f81b0319821611155b15610916576000610907608f60f884901c6133ee565b60ff1690506108bf83826124d9565b600560fd1b6001600160f81b03198216108015906109425750602960fa1b6001600160f81b0319821611155b1561096757600061095860a060f884901c6133ee565b60ff1690506108bf83826125c5565b6001600160f81b0319811660f360f81b03610985576101408261285a565b6001600160f81b0319811660fd60f81b036109a357610140826128de565b6001600160f81b031980821690036109be576109be8261296a565b8161016001516109ce57506109f1565b6001826060018181516109e19190613407565b9052505060608101518611610101575b9695505050505050565b610a068160026129ac565b15610a0e5750565b60808101518051610a439190610a2690600290613444565b81518110610a3657610a366133c2565b60200260200101516129cd565b60808201518051610a5b9190610a2690600190613444565b610a659190613407565b60808201518051610a7890600290613444565b81518110610a8857610a886133c2565b602002602001018181525050610aa381608001516001612a9d565b608090910152565b610ab68160026129ac565b15610abe5750565b60808101518051610ad69190610a2690600290613444565b60808201518051610aee9190610a2690600190613444565b610a659190613457565b610b038160026129ac565b15610b0b5750565b60808101518051610b239190610a2690600290613444565b60808201518051610b3b9190610a2690600190613444565b610a659190613444565b610b508160026129ac565b15610b585750565b60808101518051610b709190610a2690600290613444565b60808201518051610b889190610a2690600190613444565b610a659190613484565b610b9d8160026129ac565b15610ba55750565b60808101518051610bb890600290613444565b81518110610bc857610bc86133c2565b602090810291909101015160808201518051610be690600190613444565b81518110610bf657610bf66133c2565b602002602001015160001c610a659190613498565b610c168160026129ac565b15610c1e5750565b60808101518051610c369190610a2690600290613444565b60808201518051610c4e9190610a2690600190613444565b610a6591906134c6565b610c638160026129ac565b15610c6b5750565b60808101518051610c7e90600290613444565b81518110610c8e57610c8e6133c2565b602090810291909101015160808201518051610cac90600190613444565b81518110610cbc57610cbc6133c2565b602002602001015160001c610a6591906134da565b610cdc8160036129ac565b15610ce45750565b60808101518051610cf790600390613444565b81518110610d0757610d076133c2565b602002602001015160001c600003610d51576080810151805160009190610d3090600390613444565b81518110610d4057610d406133c2565b602002602001018181525050610ddd565b60808101518051610d699190610a2690600390613444565b60808201518051610d819190610a2690600290613444565b60808301518051610d999190610a2690600190613444565b610da39190613407565b610dad91906134c6565b60808201518051610dc090600390613444565b81518110610dd057610dd06133c2565b6020026020010181815250505b610aa381608001516002612a9d565b610df78160036129ac565b15610dff5750565b60808101518051610e1290600390613444565b81518110610e2257610e226133c2565b602002602001015160001c600003610e4b576080810151805160009190610d3090600390613444565b60808101518051610e639190610a2690600390613444565b60808201518051610e7b9190610a2690600290613444565b60808301518051610e939190610a2690600190613444565b610da39190613457565b610ea88160026129ac565b15610eb05750565b60808101518051610ec89190610a2690600290613444565b60808201518051610ee09190610a2690600190613444565b610a6591906135d2565b610ef58160026129ac565b15610efd5750565b6080810151805160009190610f1490600190613444565b81518110610f2457610f246133c2565b602002602001015160001c90506000610f4d83608001516002856080015151610a269190613444565b6080840151805191925082840b91829190610f6a90600290613444565b81518110610f7a57610f7a6133c2565b602002602001018181525050610f9584608001516001612a9d565b846080018190525050505050565b610fae8160026129ac565b15610fb65750565b60808101518051610fce9190610a2690600290613444565b60808201518051610fe69190610a2690600190613444565b10610ff2576000610ff5565b60015b6080820151805160ff9290921691610a7890600290613444565b61101a8160026129ac565b156110225750565b6080810151805161103a9190610a2690600290613444565b608082015180516110529190610a2690600190613444565b11610ff2576000610ff5565b6110698160026129ac565b156110715750565b6080810151805161108490600290613444565b81518110611094576110946133c2565b6020908102919091010151608082015180516110b290600190613444565b815181106110c2576110c26133c2565b602002602001015160001c12610ff2576000610ff5565b6110e48160026129ac565b156110ec5750565b608081015180516110ff90600290613444565b8151811061110f5761110f6133c2565b60209081029190910101516080820151805161112d90600190613444565b8151811061113d5761113d6133c2565b602002602001015160001c13610ff2576000610ff5565b61115f8160026129ac565b156111675750565b6080810151805161117f9190610a2690600290613444565b608082015180516111979190610a2690600190613444565b14610ff2576000610ff5565b6111ae8160016129ac565b156111b65750565b608081015180516111ce9190610a2690600190613444565b156111da5760006111dd565b60015b6080820151805160ff92909216916111f790600190613444565b81518110611207576112076133c2565b60200260200101818152505050565b6112218160026129ac565b156112295750565b6080810151805161123c90600290613444565b8151811061124c5761124c6133c2565b60200260200101518160800151600183608001515161126b9190613444565b8151811061127b5761127b6133c2565b60200260200101511681608001516002836080015151610a789190613444565b6112a68160026129ac565b156112ae5750565b608081015180516112c190600290613444565b815181106112d1576112d16133c2565b6020026020010151816080015160018360800151516112f09190613444565b81518110611300576113006133c2565b60200260200101511781608001516002836080015151610a789190613444565b61132b8160026129ac565b156113335750565b6080810151805161134690600290613444565b81518110611356576113566133c2565b6020026020010151816080015160018360800151516113759190613444565b81518110611385576113856133c2565b60200260200101511881608001516002836080015151610a789190613444565b6113b08160016129ac565b156113b85750565b608081015180516113cb90600190613444565b815181106113db576113db6133c2565b602002602001015119816080015160018360800151516111f79190613444565b6114068160026129ac565b1561140e5750565b608081015180516000919061142590600190613444565b81518110611435576114356133c2565b602002602001015160001c905080600861144f9190613457565b6080830151805161146290600290613444565b81518110611472576114726133c2565b6020026020010151901b6001600160f81b0319168260800151600284608001515161149d9190613444565b815181106114ad576114ad6133c2565b6020026020010181815250506114c882608001516001612a9d565b82608001819052505050565b6114df8160026129ac565b156114e75750565b60808101518051600091906114fe90600190613444565b8151811061150e5761150e6133c2565b602002602001015160001c905080826080015160028460800151516115339190613444565b81518110611543576115436133c2565b6020026020010151901b8260800151600284608001515161149d9190613444565b61156f8160026129ac565b156115775750565b608081015180516000919061158e90600190613444565b8151811061159e5761159e6133c2565b602002602001015160001c905080826080015160028460800151516115c39190613444565b815181106115d3576115d36133c2565b6020026020010151901c8260800151600284608001515161149d9190613444565b6115ff8160026129ac565b156116075750565b6080810151805160009161162191610a2690600190613444565b9050600061163f83608001516002856080015151610a269190613444565b6080840151805191925082841d91829190610f6a90600290613444565b6116678160026129ac565b1561166f5750565b608081015180516000919061168690600190613444565b81518110611696576116966133c2565b602002602001015160001c90506000826080015160028460800151516116bc9190613444565b815181106116cc576116cc6133c2565b602002602001015160001c905060008360c0015182846116ec9190613407565b1061170d5760c08401516117008385613407565b61170a9190613444565b90505b80156117615760a0840151611753906117276020846134c6565b15611733576001611736565b60005b60ff16611744602085613484565b61174e9190613407565b612b51565b60a085018190525160c08501525b60006117728560a001518585612c14565b8051602082012060808701518051929350909161179190600290613444565b815181106117a1576117a16133c2565b6020026020010181815250506117bc85608001516001612a9d565b85608001819052505050505050565b6117d6816001612cc7565b156117de5750565b6117ed81608001516001612ceb565b6080820181905280513091906111f790600190613444565b6118108160016129ac565b156118185750565b608081015180516000919061182f90600190613444565b8151811061183f5761183f6133c2565b6020908102919091010151608083015180519192506001600160a01b038316319161186c90600190613444565b8151811061187c5761187c6133c2565b6020026020010181815250505050565b611897816001612cc7565b1561189f5750565b6118ae81608001516001612ceb565b6080820181905280513291906111f790600190613444565b6118d1816001612cc7565b156118d95750565b6118e881608001516001612ceb565b6080820181905280513391906111f790600190613444565b61190b816001612cc7565b156119135750565b61192281608001516001612ceb565b60808201819052604082015181519091906111f790600190613444565b61194a8160016129ac565b156119525750565b6080810151805160009161196c91610a2690600190613444565b905060008260200151516020836119839190613407565b106119a85782602001515160208361199b9190613407565b6119a59190613444565b90505b80156119c9576119c3836020015160208361172791906134c6565b60208401525b6119d7836020015183612d94565b608084015180516119ea90600190613444565b815181106119fa576119fa6133c2565b602002602001018181525050505050565b611a16816001612cc7565b15611a1e5750565b611a2d81608001516001612ceb565b6080820181905260208201515181519091906111f790600190613444565b611a56816001612cc7565b15611a5e5750565b611a6d81608001516001612ceb565b6080820181905281515181519091906111f790600190613444565b611a93816001612cc7565b15611a9b5750565b611aaa81608001516001612ceb565b6080820181905280513a91906111f790600190613444565b611acd8160016129ac565b15611ad55750565b6080810151805160009190611aec90600190613444565b81518110611afc57611afc6133c2565b602090810291909101015160808301518051919250823b918291906119ea90600190613444565b611b2e8160016129ac565b15611b365750565b6080810151805160009190611b4d90600190613444565b81518110611b5d57611b5d6133c2565b602002602001015160001c905080408260800151600184608001515161186c9190613444565b611b8e816001612cc7565b15611b965750565b611ba581608001516001612ceb565b6080820181905280514191906111f790600190613444565b611bc8816001612cc7565b15611bd05750565b611bdf81608001516001612ceb565b6080820181905280514291906111f790600190613444565b611c02816001612cc7565b15611c0a5750565b611c1981608001516001612ceb565b6080820181905280514391906111f790600190613444565b611c3c816001612cc7565b15611c445750565b611c5381608001516001612ceb565b6080820181905280514691906111f790600190613444565b611c76816001612cc7565b15611c7e5750565b611c8d81608001516001612ceb565b6080820181905280514791906111f790600190613444565b611cb0816001612cc7565b15611cb85750565b611cc781608001516001612ceb565b6080820181905280514891906111f790600190613444565b611cea8160016129ac565b15611cf25750565b610aa381608001516001612a9d565b611d0c8160016129ac565b15611d145750565b60808101518051600091611d2e91610a2690600190613444565b905060008260c00151602083611d449190613407565b10611d665760c0830151611d59602084613407565b611d639190613444565b90505b8015611d8e5760a0830151611d80906117276020846134c6565b60a084018190525160c08401525b6119d78360a0015183612d94565b611da78160026129ac565b15611daf5750565b60808101518051600091611dc991610a2690600190613444565b905060008260c00151602083611ddf9190613407565b10611e015760c0830151611df4602084613407565b611dfe9190613444565b90505b8015611e295760a0830151611e1b906117276020846134c6565b60a084018190525160c08401525b611e518360a0015183611e4c86608001516002886080015151610a269190613444565b612df6565b611e6083608001516002612a9d565b8360800181905250505050565b611e788160026129ac565b15611e805750565b6080810151805160009190611e9790600190613444565b81518110611ea757611ea76133c2565b602002602001015160001c905060008260c00151600183611ec89190613407565b10611eea5760c0830151611edd600184613407565b611ee79190613444565b90505b8015611f125760a0830151611f04906117276020846134c6565b60a084018190525160c08401525b611e518360a001518360f886608001516002886080015151611f349190613444565b81518110611f4457611f446133c2565b6020026020010151901b612e5a565b611f5e8160016129ac565b15611f665750565b60008160e0015151600003611f8c57608082015180516000919061186c90600190613444565b6000805b8360e00151518110156120095760808401518051611fb090600190613444565b81518110611fc057611fc06133c2565b60200260200101518460e001518281518110611fde57611fde6133c2565b602002602001015103611ff75780915060019250612009565b80612001816135e5565b915050611f90565b5081151560000361202b5760808301518051600091906119ea90600190613444565b8261010001518181518110612042576120426133c2565b6020026020010151836080015160018560800151516119ea9190613444565b61206c8160026129ac565b156120745750565b608081015180516000919061208b90600190613444565b8151811061209b5761209b6133c2565b602002602001015190506000826080015160028460800151516120be9190613444565b815181106120ce576120ce6133c2565b6020026020010151905060008060005b8560e001515181101561212d57848660e001518281518110612102576121026133c2565b60200260200101510361211b578092506001915061212d565b80612125816135e5565b9150506120de565b508015156000036121be5761214d8560e001518661010001516001612e89565b61010087015260e08601819052805185919061216b90600190613444565b8151811061217b5761217b6133c2565b6020908102919091010152610100850151805184919061219d90600190613444565b815181106121ad576121ad6133c2565b6020026020010181815250506121e3565b8285610100015183815181106121d6576121d66133c2565b6020026020010181815250505b6117bc85608001516002612a9d565b6121fd8160016129ac565b156122055750565b608081015180516000919061221c90600190613444565b8151811061222c5761222c6133c2565b602002602001015160001c90508160000151818151811061224f5761224f6133c2565b6020910101516001600160f81b031916605b60f81b1461226d575050565b612278600182613444565b606083015260808201516114c8906001612a9d565b6122988160026129ac565b156122a05750565b60808101518051600091906122b790600190613444565b815181106122c7576122c76133c2565b602002602001015160001c90506000826080015160028460800151516122ed9190613444565b815181106122fd576122fd6133c2565b602002602001015160001c905082600001518281518110612320576123206133c2565b6020910101516001600160f81b031916605b60f81b1461233f57505050565b80600103611e5157612352600183613444565b6060840152611e6083608001516002612a9d565b612371816001612cc7565b156123795750565b61238881608001516001612ceb565b60808201819052606082015181519091906111f790600190613444565b6123b0816001612cc7565b156123b85750565b6123c781608001516001612ceb565b6080820181905260a08201515181519091906111f790600190613444565b6123f0826001612cc7565b156123f9575050565b6000805b825181101561244b57612411816008613457565b838281518110612423576124236133c2565b01602001516001600160f81b031916901c919091179080612443816135e5565b9150506123fd565b5061245b83608001516001612ceb565b6080840181905280518291906119ea90600190613444565b61247e826001612cc7565b15612487575050565b61249182826129ac565b1561249a575050565b60808201518051600091906124b0908490613444565b815181106124c0576124c06133c2565b6020026020010151905061245b83608001516001612ceb565b6124e382826129ac565b156124ec575050565b60808201518051829061250190600190613444565b61250b9190613444565b8151811061251b5761251b6133c2565b60200260200101518260800151600184608001515161253a9190613444565b8151811061254a5761254a6133c2565b6020026020010151836080015160018560800151516125699190613444565b81518110612579576125796133c2565b6020026020010184608001518460018760800151516125989190613444565b6125a29190613444565b815181106125b2576125b26133c2565b6020908102919091010191909152525050565b6125d9826125d4836002613407565b6129ac565b156125e2575050565b306000826001600160401b038111156125fd576125fd6135fe565b604051908082528060200260200182016040528015612626578160200160208202803683370190505b50905060005b8381101561269a5760808501518051829061264990600390613444565b6126539190613444565b81518110612663576126636133c2565b602002602001015182828151811061267d5761267d6133c2565b602090810291909101015280612692816135e5565b91505061262c565b50608084015180516000916126b591610a2690600190613444565b905060006126d386608001516002886080015151610a269190613444565b90506000816001600160401b038111156126ef576126ef6135fe565b6040519080825280601f01601f191660200182016040528015612719576020820181803683370190505b50905061272b8760a001518484612c14565b905061273d8761012001516001612fca565b610120880152600082612751886020613457565b61275c906020613407565b6127669190613407565b9050806001600160401b03811115612780576127806135fe565b6040519080825280601f01601f1916602001820160405280156127aa576020820181803683370190505b5061012089015180516127bf90600190613444565b815181106127cf576127cf6133c2565b60200260200101819052508585836040516020016127ef93929190613614565b60408051601f19818403018152919052610120890151805161281390600190613444565b81518110612823576128236133c2565b602002602001018190525061284888608001518860026128439190613407565b612a9d565b88608001819052505050505050505050565b6128658160026129ac565b1561286d5750565b6080810151805160009161288791610a2690600190613444565b905060006128a583608001516002856080015151610a269190613444565b90506128b68360a001518383612c14565b61014084015260808301516128cc906002612a9d565b60808401525050600061016090910152565b6128e98160026129ac565b156128f15750565b6080810151805160009161290b91610a2690600190613444565b9050600061292983608001516002856080015151610a269190613444565b905061293a8360a001518383612c14565b6101408401526080830151612950906002612a9d565b608084015250506001610180820152600061016090910152565b6129758160016129ac565b1561297d5750565b61298c81608001516001612a9d565b608082015260408051600080825260208201909252825261016090910152565b60008183608001515110156129c3575060016129c7565b5060005b92915050565b60008060205b8015612a3357836129e5600183613444565b602081106129f5576129f56133c2565b1a60f81b6001600160f81b031916600003612a1c57612a15600183613407565b9150612a21565b612a33565b80612a2b8161365f565b9150506129d3565b506000805b6020811015612a9557828110612a8357612a53816008613457565b85612a5e8584613444565b60208110612a6e57612a6e6133c2565b1a60f81b6001600160f81b031916901c821791505b80612a8d816135e5565b915050612a38565b509392505050565b60606000828451612aae9190613444565b6001600160401b03811115612ac557612ac56135fe565b604051908082528060200260200182016040528015612aee578160200160208202803683370190505b50905060005b838551612b019190613444565b811015612a9557848181518110612b1a57612b1a6133c2565b6020026020010151828281518110612b3457612b346133c2565b602090810291909101015280612b49816135e5565b915050612af4565b60606000612b60836020613457565b8451612b6c9190613407565b6001600160401b03811115612b8357612b836135fe565b6040519080825280601f01601f191660200182016040528015612bad576020820181803683370190505b50905060005b8451811015612a9557848181518110612bce57612bce6133c2565b602001015160f81c60f81b828281518110612beb57612beb6133c2565b60200101906001600160f81b031916908160001a90535080612c0c816135e5565b915050612bb3565b6060816001600160401b03811115612c2e57612c2e6135fe565b6040519080825280601f01601f191660200182016040528015612c58576020820181803683370190505b50905060005b82811015612a955784612c718286613407565b81518110612c8157612c816133c2565b602001015160f81c60f81b828281518110612c9e57612c9e6133c2565b60200101906001600160f81b031916908160001a90535080612cbf816135e5565b915050612c5e565b600061040082846080015151612cdd9190613407565b11156129c3575060016129c7565b60606000828451612cfc9190613407565b6001600160401b03811115612d1357612d136135fe565b604051908082528060200260200182016040528015612d3c578160200160208202803683370190505b50905060005b8451811015612a9557848181518110612d5d57612d5d6133c2565b6020026020010151828281518110612d7757612d776133c2565b602090810291909101015280612d8c816135e5565b915050612d42565b6000805b6020811015612def57612dac816008613457565b84612db78386613407565b81518110612dc757612dc76133c2565b01602001516001600160f81b031916901c919091179080612de7816135e5565b915050612d98565b5092915050565b60005b6020811015612e5457612e0d816008613457565b82901b84612e1b8386613407565b81518110612e2b57612e2b6133c2565b60200101906001600160f81b031916908160001a90535080612e4c816135e5565b915050612df9565b50505050565b80838381518110612e6d57612e6d6133c2565b60200101906001600160f81b031916908160001a905350505050565b6060806000838651612e9b9190613407565b6001600160401b03811115612eb257612eb26135fe565b604051908082528060200260200182016040528015612edb578160200160208202803683370190505b5090506000848651612eed9190613407565b6001600160401b03811115612f0457612f046135fe565b604051908082528060200260200182016040528015612f2d578160200160208202803683370190505b50905060005b8751811015612fbd57878181518110612f4e57612f4e6133c2565b6020026020010151838281518110612f6857612f686133c2565b602002602001018181525050868181518110612f8657612f866133c2565b6020026020010151828281518110612fa057612fa06133c2565b602090810291909101015280612fb5816135e5565b915050612f33565b5090969095509350505050565b60606000828451612fdb9190613407565b6001600160401b03811115612ff257612ff26135fe565b60405190808252806020026020018201604052801561302557816020015b60608152602001906001900390816130105790505b50905060005b8451811015612a9557848181518110613046576130466133c2565b6020026020010151828281518110613060576130606133c2565b60200260200101819052508080613076906135e5565b91505061302b565b604051806101a0016040528060608152602001606081526020016000815260200160008152602001606081526020016060815260200160008152602001606081526020016060815260200160608152602001606081526020016000151581526020016000151581525090565b60008083601f8401126130fc57600080fd5b5081356001600160401b0381111561311357600080fd5b60208301915083602082850101111561312b57600080fd5b9250929050565b60008060008060006060868803121561314a57600080fd5b85356001600160401b038082111561316157600080fd5b61316d89838a016130ea565b9097509550602088013591508082111561318657600080fd5b50613193888289016130ea565b96999598509660400135949350505050565b60005b838110156131c05781810151838201526020016131a8565b50506000910152565b600081518084526131e18160208601602086016131a5565b601f01601f19169290920160200192915050565b600081518084526020808501945080840160005b8381101561322557815187529582019590820190600101613209565b509495945050505050565b600081518084526020808501808196508360051b8101915082860160005b858110156132785782840389526132668483516131c9565b9885019893509084019060010161324e565b5091979650505050505050565b60208152600082516101a08060208501526132a46101c08501836131c9565b91506020850151601f19808685030160408701526132c284836131c9565b9350604087015160608701526060870151608087015260808701519150808685030160a08701526132f384836131f5565b935060a08701519150808685030160c087015261331084836131c9565b935060c087015160e087015260e0870151915061010081878603018188015261333985846131f5565b94508088015192505061012081878603018188015261335885846131f5565b9450808801519250506101408187860301818801526133778584613230565b94508088015192505061016081878603018188015261339685846131c9565b945080880151925050506101806133b08187018315159052565b90950151151593019290925250919050565b634e487b7160e01b600052603260045260246000fd5b634e487b7160e01b600052601160045260246000fd5b60ff82811682821603908111156129c7576129c76133d8565b808201808211156129c7576129c76133d8565b6000808585111561342a57600080fd5b8386111561343757600080fd5b5050820193919092039150565b818103818111156129c7576129c76133d8565b80820281158282048414176129c7576129c76133d8565b634e487b7160e01b600052601260045260246000fd5b6000826134935761349361346e565b500490565b6000826134a7576134a761346e565b600160ff1b8214600019841416156134c1576134c16133d8565b500590565b6000826134d5576134d561346e565b500690565b6000826134e9576134e961346e565b500790565b600181815b8085111561352957816000190482111561350f5761350f6133d8565b8085161561351c57918102915b93841c93908002906134f3565b509250929050565b600082613540575060016129c7565b8161354d575060006129c7565b8160018114613563576002811461356d57613589565b60019150506129c7565b60ff84111561357e5761357e6133d8565b50506001821b6129c7565b5060208310610133831016604e8410600b84101617156135ac575081810a6129c7565b6135b683836134ee565b80600019048211156135ca576135ca6133d8565b029392505050565b60006135de8383613531565b9392505050565b6000600182016135f7576135f76133d8565b5060010190565b634e487b7160e01b600052604160045260246000fd5b83815260006020808301855182870160005b8281101561364257815184529284019290840190600101613626565b505050845161365481838589016131a5565b019695505050505050565b60008161366e5761366e6133d8565b50600019019056fea264697066735822122007f17876b8cf22b633c5d84acc714ed808da2b1cb49d4c2ac4d06b5fb646244464736f6c63430008110033",
	"linkReferences": {},
	"deployedLinkReferences": {}
}